{
	"mock-router/UniswapV2Migrator.sol": {
		"UniswapV2Migrator": {
			"abi": [
				{
					"inputs": [
						{
							"internalType": "address",
							"name": "_factoryV1",
							"type": "address"
						},
						{
							"internalType": "address",
							"name": "_router",
							"type": "address"
						}
					],
					"stateMutability": "nonpayable",
					"type": "constructor"
				},
				{
					"inputs": [
						{
							"internalType": "address",
							"name": "token",
							"type": "address"
						},
						{
							"internalType": "uint256",
							"name": "amountTokenMin",
							"type": "uint256"
						},
						{
							"internalType": "uint256",
							"name": "amountETHMin",
							"type": "uint256"
						},
						{
							"internalType": "address",
							"name": "to",
							"type": "address"
						},
						{
							"internalType": "uint256",
							"name": "deadline",
							"type": "uint256"
						}
					],
					"name": "migrate",
					"outputs": [],
					"stateMutability": "nonpayable",
					"type": "function"
				},
				{
					"stateMutability": "payable",
					"type": "receive"
				}
			],
			"devdoc": {
				"kind": "dev",
				"methods": {},
				"version": 1
			},
			"evm": {
				"assembly": "    /* \"mock-router/UniswapV2Migrator.sol\":337:2236  contract UniswapV2Migrator is IUniswapV2Migrator {... */\n  mstore(0x40, 0xc0)\n    /* \"mock-router/UniswapV2Migrator.sol\":477:630  constructor(address _factoryV1, address _router) {... */\n  callvalue\n  dup1\n  iszero\n  tag_1\n  jumpi\n  0x00\n  dup1\n  revert\ntag_1:\n  pop\n  mload(0x40)\n  sub(codesize, bytecodeSize)\n  dup1\n  bytecodeSize\n  dup4\n  codecopy\n  dup2\n  dup2\n  add\n  0x40\n  mstore\n  dup2\n  add\n  swap1\n  tag_2\n  swap2\n  swap1\n  tag_3\n  jump\t// in\ntag_2:\n    /* \"mock-router/UniswapV2Migrator.sol\":566:576  _factoryV1 */\n  dup2\n    /* \"mock-router/UniswapV2Migrator.sol\":536:577  factoryV1 = IUniswapV1Factory(_factoryV1) */\n  0xffffffffffffffffffffffffffffffffffffffff\n  and\n  0x80\n  dup2\n  0xffffffffffffffffffffffffffffffffffffffff\n  and\n  dup2\n  mstore\n  pop\n  pop\n    /* \"mock-router/UniswapV2Migrator.sol\":615:622  _router */\n  dup1\n    /* \"mock-router/UniswapV2Migrator.sol\":587:623  router = IUniswapV2Router01(_router) */\n  0xffffffffffffffffffffffffffffffffffffffff\n  and\n  0xa0\n  dup2\n  0xffffffffffffffffffffffffffffffffffffffff\n  and\n  dup2\n  mstore\n  pop\n  pop\n    /* \"mock-router/UniswapV2Migrator.sol\":477:630  constructor(address _factoryV1, address _router) {... */\n  pop\n  pop\n    /* \"mock-router/UniswapV2Migrator.sol\":337:2236  contract UniswapV2Migrator is IUniswapV2Migrator {... */\n  jump(tag_6)\n    /* \"#utility.yul\":88:205   */\ntag_8:\n    /* \"#utility.yul\":197:198   */\n  0x00\n    /* \"#utility.yul\":194:195   */\n  dup1\n    /* \"#utility.yul\":187:199   */\n  revert\n    /* \"#utility.yul\":334:460   */\ntag_10:\n    /* \"#utility.yul\":371:378   */\n  0x00\n    /* \"#utility.yul\":411:453   */\n  0xffffffffffffffffffffffffffffffffffffffff\n    /* \"#utility.yul\":404:409   */\n  dup3\n    /* \"#utility.yul\":400:454   */\n  and\n    /* \"#utility.yul\":389:454   */\n  swap1\n  pop\n    /* \"#utility.yul\":334:460   */\n  swap2\n  swap1\n  pop\n  jump\t// out\n    /* \"#utility.yul\":466:562   */\ntag_11:\n    /* \"#utility.yul\":503:510   */\n  0x00\n    /* \"#utility.yul\":532:556   */\n  tag_20\n    /* \"#utility.yul\":550:555   */\n  dup3\n    /* \"#utility.yul\":532:556   */\n  tag_10\n  jump\t// in\ntag_20:\n    /* \"#utility.yul\":521:556   */\n  swap1\n  pop\n    /* \"#utility.yul\":466:562   */\n  swap2\n  swap1\n  pop\n  jump\t// out\n    /* \"#utility.yul\":568:690   */\ntag_12:\n    /* \"#utility.yul\":641:665   */\n  tag_22\n    /* \"#utility.yul\":659:664   */\n  dup2\n    /* \"#utility.yul\":641:665   */\n  tag_11\n  jump\t// in\ntag_22:\n    /* \"#utility.yul\":634:639   */\n  dup2\n    /* \"#utility.yul\":631:666   */\n  eq\n    /* \"#utility.yul\":621:684   */\n  tag_23\n  jumpi\n    /* \"#utility.yul\":680:681   */\n  0x00\n    /* \"#utility.yul\":677:678   */\n  dup1\n    /* \"#utility.yul\":670:682   */\n  revert\n    /* \"#utility.yul\":621:684   */\ntag_23:\n    /* \"#utility.yul\":568:690   */\n  pop\n  jump\t// out\n    /* \"#utility.yul\":696:839   */\ntag_13:\n    /* \"#utility.yul\":753:758   */\n  0x00\n    /* \"#utility.yul\":784:790   */\n  dup2\n    /* \"#utility.yul\":778:791   */\n  mload\n    /* \"#utility.yul\":769:791   */\n  swap1\n  pop\n    /* \"#utility.yul\":800:833   */\n  tag_25\n    /* \"#utility.yul\":827:832   */\n  dup2\n    /* \"#utility.yul\":800:833   */\n  tag_12\n  jump\t// in\ntag_25:\n    /* \"#utility.yul\":696:839   */\n  swap3\n  swap2\n  pop\n  pop\n  jump\t// out\n    /* \"#utility.yul\":845:1352   */\ntag_3:\n    /* \"#utility.yul\":924:930   */\n  0x00\n    /* \"#utility.yul\":932:938   */\n  dup1\n    /* \"#utility.yul\":981:983   */\n  0x40\n    /* \"#utility.yul\":969:978   */\n  dup4\n    /* \"#utility.yul\":960:967   */\n  dup6\n    /* \"#utility.yul\":956:979   */\n  sub\n    /* \"#utility.yul\":952:984   */\n  slt\n    /* \"#utility.yul\":949:1068   */\n  iszero\n  tag_27\n  jumpi\n    /* \"#utility.yul\":987:1066   */\n  tag_28\n  tag_8\n  jump\t// in\ntag_28:\n    /* \"#utility.yul\":949:1068   */\ntag_27:\n    /* \"#utility.yul\":1107:1108   */\n  0x00\n    /* \"#utility.yul\":1132:1196   */\n  tag_29\n    /* \"#utility.yul\":1188:1195   */\n  dup6\n    /* \"#utility.yul\":1179:1185   */\n  dup3\n    /* \"#utility.yul\":1168:1177   */\n  dup7\n    /* \"#utility.yul\":1164:1186   */\n  add\n    /* \"#utility.yul\":1132:1196   */\n  tag_13\n  jump\t// in\ntag_29:\n    /* \"#utility.yul\":1122:1196   */\n  swap3\n  pop\n    /* \"#utility.yul\":1078:1206   */\n  pop\n    /* \"#utility.yul\":1245:1247   */\n  0x20\n    /* \"#utility.yul\":1271:1335   */\n  tag_30\n    /* \"#utility.yul\":1327:1334   */\n  dup6\n    /* \"#utility.yul\":1318:1324   */\n  dup3\n    /* \"#utility.yul\":1307:1316   */\n  dup7\n    /* \"#utility.yul\":1303:1325   */\n  add\n    /* \"#utility.yul\":1271:1335   */\n  tag_13\n  jump\t// in\ntag_30:\n    /* \"#utility.yul\":1261:1335   */\n  swap2\n  pop\n    /* \"#utility.yul\":1216:1345   */\n  pop\n    /* \"#utility.yul\":845:1352   */\n  swap3\n  pop\n  swap3\n  swap1\n  pop\n  jump\t// out\n    /* \"mock-router/UniswapV2Migrator.sol\":337:2236  contract UniswapV2Migrator is IUniswapV2Migrator {... */\ntag_6:\n  mload(0x80)\n  mload(0xa0)\n  codecopy(0x00, dataOffset(sub_0), dataSize(sub_0))\n  0x00\n  assignImmutable(\"0x1d3be50b2bb17407dd170f1d5da128d1def30c6b1598d6a629e79b4775265526\")\n  0x00\n  assignImmutable(\"0x7f8b6b088b6d74c2852fc86c796dca07b44eed6fb3daf5e6b59f7c364db14528\")\n  return(0x00, dataSize(sub_0))\nstop\n\nsub_0: assembly {\n        /* \"mock-router/UniswapV2Migrator.sol\":337:2236  contract UniswapV2Migrator is IUniswapV2Migrator {... */\n      mstore(0x40, 0x80)\n      jumpi(tag_1, lt(calldatasize, 0x04))\n      shr(0xe0, calldataload(0x00))\n      dup1\n      0xb7df1d25\n      eq\n      tag_3\n      jumpi\n      jump(tag_2)\n    tag_1:\n      jumpi(tag_2, calldatasize)\n      stop\n    tag_2:\n      0x00\n      dup1\n      revert\n        /* \"mock-router/UniswapV2Migrator.sol\":885:2234  function migrate(address token, uint amountTokenMin, uint amountETHMin, address to, uint deadline)... */\n    tag_3:\n      callvalue\n      dup1\n      iszero\n      tag_6\n      jumpi\n      0x00\n      dup1\n      revert\n    tag_6:\n      pop\n      tag_7\n      0x04\n      dup1\n      calldatasize\n      sub\n      dup2\n      add\n      swap1\n      tag_8\n      swap2\n      swap1\n      tag_9\n      jump\t// in\n    tag_8:\n      tag_10\n      jump\t// in\n    tag_7:\n      stop\n    tag_10:\n        /* \"mock-router/UniswapV2Migrator.sol\":1032:1061  IUniswapV1Exchange exchangeV1 */\n      0x00\n        /* \"mock-router/UniswapV2Migrator.sol\":1083:1092  factoryV1 */\n      immutable(\"0x7f8b6b088b6d74c2852fc86c796dca07b44eed6fb3daf5e6b59f7c364db14528\")\n        /* \"mock-router/UniswapV2Migrator.sol\":1083:1104  factoryV1.getExchange */\n      0xffffffffffffffffffffffffffffffffffffffff\n      and\n      0x06f2bf62\n        /* \"mock-router/UniswapV2Migrator.sol\":1105:1110  token */\n      dup8\n        /* \"mock-router/UniswapV2Migrator.sol\":1083:1111  factoryV1.getExchange(token) */\n      mload(0x40)\n      dup3\n      0xffffffff\n      and\n      0xe0\n      shl\n      dup2\n      mstore\n      0x04\n      add\n      tag_12\n      swap2\n      swap1\n      tag_13\n      jump\t// in\n    tag_12:\n      0x20\n      mload(0x40)\n      dup1\n      dup4\n      sub\n      dup2\n      dup7\n      gas\n      staticcall\n      iszero\n      dup1\n      iszero\n      tag_15\n      jumpi\n      returndatasize\n      0x00\n      dup1\n      returndatacopy\n      revert(0x00, returndatasize)\n    tag_15:\n      pop\n      pop\n      pop\n      pop\n      mload(0x40)\n      returndatasize\n      not(0x1f)\n      0x1f\n      dup3\n      add\n      and\n      dup3\n      add\n      dup1\n      0x40\n      mstore\n      pop\n      dup2\n      add\n      swap1\n      tag_16\n      swap2\n      swap1\n      tag_17\n      jump\t// in\n    tag_16:\n        /* \"mock-router/UniswapV2Migrator.sol\":1032:1112  IUniswapV1Exchange exchangeV1 = IUniswapV1Exchange(factoryV1.getExchange(token)) */\n      swap1\n      pop\n        /* \"mock-router/UniswapV2Migrator.sol\":1122:1138  uint liquidityV1 */\n      0x00\n        /* \"mock-router/UniswapV2Migrator.sol\":1141:1151  exchangeV1 */\n      dup2\n        /* \"mock-router/UniswapV2Migrator.sol\":1141:1161  exchangeV1.balanceOf */\n      0xffffffffffffffffffffffffffffffffffffffff\n      and\n      0x70a08231\n        /* \"mock-router/UniswapV2Migrator.sol\":1162:1172  msg.sender */\n      caller\n        /* \"mock-router/UniswapV2Migrator.sol\":1141:1173  exchangeV1.balanceOf(msg.sender) */\n      mload(0x40)\n      dup3\n      0xffffffff\n      and\n      0xe0\n      shl\n      dup2\n      mstore\n      0x04\n      add\n      tag_18\n      swap2\n      swap1\n      tag_13\n      jump\t// in\n    tag_18:\n      0x20\n      mload(0x40)\n      dup1\n      dup4\n      sub\n      dup2\n      dup7\n      gas\n      staticcall\n      iszero\n      dup1\n      iszero\n      tag_20\n      jumpi\n      returndatasize\n      0x00\n      dup1\n      returndatacopy\n      revert(0x00, returndatasize)\n    tag_20:\n      pop\n      pop\n      pop\n      pop\n      mload(0x40)\n      returndatasize\n      not(0x1f)\n      0x1f\n      dup3\n      add\n      and\n      dup3\n      add\n      dup1\n      0x40\n      mstore\n      pop\n      dup2\n      add\n      swap1\n      tag_21\n      swap2\n      swap1\n      tag_22\n      jump\t// in\n    tag_21:\n        /* \"mock-router/UniswapV2Migrator.sol\":1122:1173  uint liquidityV1 = exchangeV1.balanceOf(msg.sender) */\n      swap1\n      pop\n        /* \"mock-router/UniswapV2Migrator.sol\":1191:1201  exchangeV1 */\n      dup2\n        /* \"mock-router/UniswapV2Migrator.sol\":1191:1214  exchangeV1.transferFrom */\n      0xffffffffffffffffffffffffffffffffffffffff\n      and\n      0x23b872dd\n        /* \"mock-router/UniswapV2Migrator.sol\":1215:1225  msg.sender */\n      caller\n        /* \"mock-router/UniswapV2Migrator.sol\":1235:1239  this */\n      address\n        /* \"mock-router/UniswapV2Migrator.sol\":1242:1253  liquidityV1 */\n      dup5\n        /* \"mock-router/UniswapV2Migrator.sol\":1191:1254  exchangeV1.transferFrom(msg.sender, address(this), liquidityV1) */\n      mload(0x40)\n      dup5\n      0xffffffff\n      and\n      0xe0\n      shl\n      dup2\n      mstore\n      0x04\n      add\n      tag_23\n      swap4\n      swap3\n      swap2\n      swap1\n      tag_24\n      jump\t// in\n    tag_23:\n      0x20\n      mload(0x40)\n      dup1\n      dup4\n      sub\n      dup2\n      0x00\n      dup8\n      gas\n      call\n      iszero\n      dup1\n      iszero\n      tag_26\n      jumpi\n      returndatasize\n      0x00\n      dup1\n      returndatacopy\n      revert(0x00, returndatasize)\n    tag_26:\n      pop\n      pop\n      pop\n      pop\n      mload(0x40)\n      returndatasize\n      not(0x1f)\n      0x1f\n      dup3\n      add\n      and\n      dup3\n      add\n      dup1\n      0x40\n      mstore\n      pop\n      dup2\n      add\n      swap1\n      tag_27\n      swap2\n      swap1\n      tag_28\n      jump\t// in\n    tag_27:\n        /* \"mock-router/UniswapV2Migrator.sol\":1183:1279  require(exchangeV1.transferFrom(msg.sender, address(this), liquidityV1), 'TRANSFER_FROM_FAILED') */\n      tag_29\n      jumpi\n      mload(0x40)\n      0x08c379a000000000000000000000000000000000000000000000000000000000\n      dup2\n      mstore\n      0x04\n      add\n      tag_30\n      swap1\n      tag_31\n      jump\t// in\n    tag_30:\n      mload(0x40)\n      dup1\n      swap2\n      sub\n      swap1\n      revert\n    tag_29:\n        /* \"mock-router/UniswapV2Migrator.sol\":1290:1306  uint amountETHV1 */\n      0x00\n        /* \"mock-router/UniswapV2Migrator.sol\":1308:1326  uint amountTokenV1 */\n      dup1\n        /* \"mock-router/UniswapV2Migrator.sol\":1330:1340  exchangeV1 */\n      dup4\n        /* \"mock-router/UniswapV2Migrator.sol\":1330:1356  exchangeV1.removeLiquidity */\n      0xffffffffffffffffffffffffffffffffffffffff\n      and\n      0xf88bf15a\n        /* \"mock-router/UniswapV2Migrator.sol\":1357:1368  liquidityV1 */\n      dup5\n        /* \"mock-router/UniswapV2Migrator.sol\":1370:1371  1 */\n      0x01\n        /* \"mock-router/UniswapV2Migrator.sol\":1373:1374  1 */\n      dup1\n        /* \"mock-router/UniswapV2Migrator.sol\":1376:1390  type(uint).max */\n      0xffffffffffffffffffffffffffffffffffffffffffffffffffffffffffffffff\n        /* \"mock-router/UniswapV2Migrator.sol\":1330:1391  exchangeV1.removeLiquidity(liquidityV1, 1, 1, type(uint).max) */\n      mload(0x40)\n      dup6\n      0xffffffff\n      and\n      0xe0\n      shl\n      dup2\n      mstore\n      0x04\n      add\n      tag_32\n      swap5\n      swap4\n      swap3\n      swap2\n      swap1\n      tag_33\n      jump\t// in\n    tag_32:\n      0x40\n      dup1\n      mload\n      dup1\n      dup4\n      sub\n      dup2\n      0x00\n      dup8\n      gas\n      call\n      iszero\n      dup1\n      iszero\n      tag_35\n      jumpi\n      returndatasize\n      0x00\n      dup1\n      returndatacopy\n      revert(0x00, returndatasize)\n    tag_35:\n      pop\n      pop\n      pop\n      pop\n      mload(0x40)\n      returndatasize\n      not(0x1f)\n      0x1f\n      dup3\n      add\n      and\n      dup3\n      add\n      dup1\n      0x40\n      mstore\n      pop\n      dup2\n      add\n      swap1\n      tag_36\n      swap2\n      swap1\n      tag_37\n      jump\t// in\n    tag_36:\n        /* \"mock-router/UniswapV2Migrator.sol\":1289:1391  (uint amountETHV1, uint amountTokenV1) = exchangeV1.removeLiquidity(liquidityV1, 1, 1, type(uint).max) */\n      swap2\n      pop\n      swap2\n      pop\n        /* \"mock-router/UniswapV2Migrator.sol\":1401:1466  TransferHelper.safeApprove(token, address(router), amountTokenV1) */\n      tag_38\n        /* \"mock-router/UniswapV2Migrator.sol\":1428:1433  token */\n      dup10\n        /* \"mock-router/UniswapV2Migrator.sol\":1443:1449  router */\n      immutable(\"0x1d3be50b2bb17407dd170f1d5da128d1def30c6b1598d6a629e79b4775265526\")\n        /* \"mock-router/UniswapV2Migrator.sol\":1452:1465  amountTokenV1 */\n      dup4\n        /* \"mock-router/UniswapV2Migrator.sol\":1401:1427  TransferHelper.safeApprove */\n      tag_39\n        /* \"mock-router/UniswapV2Migrator.sol\":1401:1466  TransferHelper.safeApprove(token, address(router), amountTokenV1) */\n      jump\t// in\n    tag_38:\n        /* \"mock-router/UniswapV2Migrator.sol\":1477:1495  uint amountTokenV2 */\n      0x00\n        /* \"mock-router/UniswapV2Migrator.sol\":1497:1513  uint amountETHV2 */\n      dup1\n        /* \"mock-router/UniswapV2Migrator.sol\":1518:1524  router */\n      immutable(\"0x1d3be50b2bb17407dd170f1d5da128d1def30c6b1598d6a629e79b4775265526\")\n        /* \"mock-router/UniswapV2Migrator.sol\":1518:1540  router.addLiquidityETH */\n      0xffffffffffffffffffffffffffffffffffffffff\n      and\n      0xf305d719\n        /* \"mock-router/UniswapV2Migrator.sol\":1548:1559  amountETHV1 */\n      dup6\n        /* \"mock-router/UniswapV2Migrator.sol\":1574:1579  token */\n      dup14\n        /* \"mock-router/UniswapV2Migrator.sol\":1593:1606  amountTokenV1 */\n      dup7\n        /* \"mock-router/UniswapV2Migrator.sol\":1620:1634  amountTokenMin */\n      dup15\n        /* \"mock-router/UniswapV2Migrator.sol\":1648:1660  amountETHMin */\n      dup15\n        /* \"mock-router/UniswapV2Migrator.sol\":1674:1676  to */\n      dup15\n        /* \"mock-router/UniswapV2Migrator.sol\":1690:1698  deadline */\n      dup15\n        /* \"mock-router/UniswapV2Migrator.sol\":1518:1708  router.addLiquidityETH{value: amountETHV1}(... */\n      mload(0x40)\n      dup9\n      0xffffffff\n      and\n      0xe0\n      shl\n      dup2\n      mstore\n      0x04\n      add\n      tag_40\n      swap7\n      swap6\n      swap5\n      swap4\n      swap3\n      swap2\n      swap1\n      tag_41\n      jump\t// in\n    tag_40:\n      0x60\n      mload(0x40)\n      dup1\n      dup4\n      sub\n      dup2\n      dup6\n      dup9\n      gas\n      call\n      iszero\n      dup1\n      iszero\n      tag_43\n      jumpi\n      returndatasize\n      0x00\n      dup1\n      returndatacopy\n      revert(0x00, returndatasize)\n    tag_43:\n      pop\n      pop\n      pop\n      pop\n      pop\n      mload(0x40)\n      returndatasize\n      not(0x1f)\n      0x1f\n      dup3\n      add\n      and\n      dup3\n      add\n      dup1\n      0x40\n      mstore\n      pop\n      dup2\n      add\n      swap1\n      tag_44\n      swap2\n      swap1\n      tag_45\n      jump\t// in\n    tag_44:\n        /* \"mock-router/UniswapV2Migrator.sol\":1476:1708  (uint amountTokenV2, uint amountETHV2,) = router.addLiquidityETH{value: amountETHV1}(... */\n      pop\n      swap2\n      pop\n      swap2\n      pop\n        /* \"mock-router/UniswapV2Migrator.sol\":1738:1751  amountTokenV2 */\n      dup2\n        /* \"mock-router/UniswapV2Migrator.sol\":1722:1735  amountTokenV1 */\n      dup4\n        /* \"mock-router/UniswapV2Migrator.sol\":1722:1751  amountTokenV1 > amountTokenV2 */\n      gt\n        /* \"mock-router/UniswapV2Migrator.sol\":1718:2228  if (amountTokenV1 > amountTokenV2) {... */\n      iszero\n      tag_46\n      jumpi\n        /* \"mock-router/UniswapV2Migrator.sol\":1767:1820  TransferHelper.safeApprove(token, address(router), 0) */\n      tag_47\n        /* \"mock-router/UniswapV2Migrator.sol\":1794:1799  token */\n      dup12\n        /* \"mock-router/UniswapV2Migrator.sol\":1809:1815  router */\n      immutable(\"0x1d3be50b2bb17407dd170f1d5da128d1def30c6b1598d6a629e79b4775265526\")\n        /* \"mock-router/UniswapV2Migrator.sol\":1818:1819  0 */\n      0x00\n        /* \"mock-router/UniswapV2Migrator.sol\":1767:1793  TransferHelper.safeApprove */\n      tag_39\n        /* \"mock-router/UniswapV2Migrator.sol\":1767:1820  TransferHelper.safeApprove(token, address(router), 0) */\n      jump\t// in\n    tag_47:\n        /* \"mock-router/UniswapV2Migrator.sol\":1888:1965  TransferHelper.safeTransfer(token, msg.sender, amountTokenV1 - amountTokenV2) */\n      tag_48\n        /* \"mock-router/UniswapV2Migrator.sol\":1916:1921  token */\n      dup12\n        /* \"mock-router/UniswapV2Migrator.sol\":1923:1933  msg.sender */\n      caller\n        /* \"mock-router/UniswapV2Migrator.sol\":1951:1964  amountTokenV2 */\n      dup5\n        /* \"mock-router/UniswapV2Migrator.sol\":1935:1948  amountTokenV1 */\n      dup7\n        /* \"mock-router/UniswapV2Migrator.sol\":1935:1964  amountTokenV1 - amountTokenV2 */\n      tag_49\n      swap2\n      swap1\n      tag_50\n      jump\t// in\n    tag_49:\n        /* \"mock-router/UniswapV2Migrator.sol\":1888:1915  TransferHelper.safeTransfer */\n      tag_51\n        /* \"mock-router/UniswapV2Migrator.sol\":1888:1965  TransferHelper.safeTransfer(token, msg.sender, amountTokenV1 - amountTokenV2) */\n      jump\t// in\n    tag_48:\n        /* \"mock-router/UniswapV2Migrator.sol\":1718:2228  if (amountTokenV1 > amountTokenV2) {... */\n      jump(tag_52)\n    tag_46:\n        /* \"mock-router/UniswapV2Migrator.sol\":2000:2011  amountETHV2 */\n      dup1\n        /* \"mock-router/UniswapV2Migrator.sol\":1986:1997  amountETHV1 */\n      dup5\n        /* \"mock-router/UniswapV2Migrator.sol\":1986:2011  amountETHV1 > amountETHV2 */\n      gt\n        /* \"mock-router/UniswapV2Migrator.sol\":1982:2228  if (amountETHV1 > amountETHV2) {... */\n      iszero\n      tag_53\n      jumpi\n        /* \"mock-router/UniswapV2Migrator.sol\":2148:2217  TransferHelper.safeTransferETH(msg.sender, amountETHV1 - amountETHV2) */\n      tag_54\n        /* \"mock-router/UniswapV2Migrator.sol\":2179:2189  msg.sender */\n      caller\n        /* \"mock-router/UniswapV2Migrator.sol\":2205:2216  amountETHV2 */\n      dup3\n        /* \"mock-router/UniswapV2Migrator.sol\":2191:2202  amountETHV1 */\n      dup7\n        /* \"mock-router/UniswapV2Migrator.sol\":2191:2216  amountETHV1 - amountETHV2 */\n      tag_55\n      swap2\n      swap1\n      tag_50\n      jump\t// in\n    tag_55:\n        /* \"mock-router/UniswapV2Migrator.sol\":2148:2178  TransferHelper.safeTransferETH */\n      tag_56\n        /* \"mock-router/UniswapV2Migrator.sol\":2148:2217  TransferHelper.safeTransferETH(msg.sender, amountETHV1 - amountETHV2) */\n      jump\t// in\n    tag_54:\n        /* \"mock-router/UniswapV2Migrator.sol\":1982:2228  if (amountETHV1 > amountETHV2) {... */\n    tag_53:\n        /* \"mock-router/UniswapV2Migrator.sol\":1718:2228  if (amountTokenV1 > amountTokenV2) {... */\n    tag_52:\n        /* \"mock-router/UniswapV2Migrator.sol\":1022:2234  {... */\n      pop\n      pop\n      pop\n      pop\n      pop\n      pop\n        /* \"mock-router/UniswapV2Migrator.sol\":885:2234  function migrate(address token, uint amountTokenMin, uint amountETHMin, address to, uint deadline)... */\n      pop\n      pop\n      pop\n      pop\n      pop\n      jump\t// out\n        /* \"mock-router/lib/contracts/libraries/TransferHelper.sol\":196:630  function safeApprove(... */\n    tag_39:\n        /* \"mock-router/lib/contracts/libraries/TransferHelper.sol\":374:386  bool success */\n      0x00\n        /* \"mock-router/lib/contracts/libraries/TransferHelper.sol\":388:405  bytes memory data */\n      dup1\n        /* \"mock-router/lib/contracts/libraries/TransferHelper.sol\":409:414  token */\n      dup5\n        /* \"mock-router/lib/contracts/libraries/TransferHelper.sol\":409:419  token.call */\n      0xffffffffffffffffffffffffffffffffffffffff\n      and\n        /* \"mock-router/lib/contracts/libraries/TransferHelper.sol\":443:453  0x095ea7b3 */\n      0x095ea7b3\n        /* \"mock-router/lib/contracts/libraries/TransferHelper.sol\":455:457  to */\n      dup6\n        /* \"mock-router/lib/contracts/libraries/TransferHelper.sol\":459:464  value */\n      dup6\n        /* \"mock-router/lib/contracts/libraries/TransferHelper.sol\":420:465  abi.encodeWithSelector(0x095ea7b3, to, value) */\n      add(0x24, mload(0x40))\n      tag_58\n      swap3\n      swap2\n      swap1\n      tag_59\n      jump\t// in\n    tag_58:\n      mload(0x40)\n      0x20\n      dup2\n      dup4\n      sub\n      sub\n      dup2\n      mstore\n      swap1\n      0x40\n      mstore\n      swap1\n      0xe0\n      shl\n      0x20\n      dup3\n      add\n      dup1\n      mload\n      0xffffffffffffffffffffffffffffffffffffffffffffffffffffffff\n      dup4\n      dup2\n      dup4\n      and\n      or\n      dup4\n      mstore\n      pop\n      pop\n      pop\n      pop\n        /* \"mock-router/lib/contracts/libraries/TransferHelper.sol\":409:466  token.call(abi.encodeWithSelector(0x095ea7b3, to, value)) */\n      mload(0x40)\n      tag_60\n      swap2\n      swap1\n      tag_61\n      jump\t// in\n    tag_60:\n      0x00\n      mload(0x40)\n      dup1\n      dup4\n      sub\n      dup2\n      0x00\n      dup7\n      gas\n      call\n      swap2\n      pop\n      pop\n      returndatasize\n      dup1\n      0x00\n      dup2\n      eq\n      tag_64\n      jumpi\n      mload(0x40)\n      swap2\n      pop\n      and(add(returndatasize, 0x3f), not(0x1f))\n      dup3\n      add\n      0x40\n      mstore\n      returndatasize\n      dup3\n      mstore\n      returndatasize\n      0x00\n      0x20\n      dup5\n      add\n      returndatacopy\n      jump(tag_63)\n    tag_64:\n      0x60\n      swap2\n      pop\n    tag_63:\n      pop\n        /* \"mock-router/lib/contracts/libraries/TransferHelper.sol\":373:466  (bool success, bytes memory data) = token.call(abi.encodeWithSelector(0x095ea7b3, to, value)) */\n      swap2\n      pop\n      swap2\n      pop\n        /* \"mock-router/lib/contracts/libraries/TransferHelper.sol\":497:504  success */\n      dup2\n        /* \"mock-router/lib/contracts/libraries/TransferHelper.sol\":497:554  success && (data.length == 0 || abi.decode(data, (bool))) */\n      dup1\n      iszero\n      tag_65\n      jumpi\n      pop\n        /* \"mock-router/lib/contracts/libraries/TransferHelper.sol\":524:525  0 */\n      0x00\n        /* \"mock-router/lib/contracts/libraries/TransferHelper.sol\":509:513  data */\n      dup2\n        /* \"mock-router/lib/contracts/libraries/TransferHelper.sol\":509:520  data.length */\n      mload\n        /* \"mock-router/lib/contracts/libraries/TransferHelper.sol\":509:525  data.length == 0 */\n      eq\n        /* \"mock-router/lib/contracts/libraries/TransferHelper.sol\":509:553  data.length == 0 || abi.decode(data, (bool)) */\n      dup1\n      tag_66\n      jumpi\n      pop\n        /* \"mock-router/lib/contracts/libraries/TransferHelper.sol\":540:544  data */\n      dup1\n        /* \"mock-router/lib/contracts/libraries/TransferHelper.sol\":529:553  abi.decode(data, (bool)) */\n      dup1\n      0x20\n      add\n      swap1\n      mload\n      dup2\n      add\n      swap1\n      tag_67\n      swap2\n      swap1\n      tag_28\n      jump\t// in\n    tag_67:\n        /* \"mock-router/lib/contracts/libraries/TransferHelper.sol\":509:553  data.length == 0 || abi.decode(data, (bool)) */\n    tag_66:\n        /* \"mock-router/lib/contracts/libraries/TransferHelper.sol\":497:554  success && (data.length == 0 || abi.decode(data, (bool))) */\n    tag_65:\n        /* \"mock-router/lib/contracts/libraries/TransferHelper.sol\":476:623  require(... */\n      tag_68\n      jumpi\n      mload(0x40)\n      0x08c379a000000000000000000000000000000000000000000000000000000000\n      dup2\n      mstore\n      0x04\n      add\n      tag_69\n      swap1\n      tag_70\n      jump\t// in\n    tag_69:\n      mload(0x40)\n      dup1\n      swap2\n      sub\n      swap1\n      revert\n    tag_68:\n        /* \"mock-router/lib/contracts/libraries/TransferHelper.sol\":298:630  {... */\n      pop\n      pop\n        /* \"mock-router/lib/contracts/libraries/TransferHelper.sol\":196:630  function safeApprove(... */\n      pop\n      pop\n      pop\n      jump\t// out\n        /* \"mock-router/lib/contracts/libraries/TransferHelper.sol\":636:1074  function safeTransfer(... */\n    tag_51:\n        /* \"mock-router/lib/contracts/libraries/TransferHelper.sol\":816:828  bool success */\n      0x00\n        /* \"mock-router/lib/contracts/libraries/TransferHelper.sol\":830:847  bytes memory data */\n      dup1\n        /* \"mock-router/lib/contracts/libraries/TransferHelper.sol\":851:856  token */\n      dup5\n        /* \"mock-router/lib/contracts/libraries/TransferHelper.sol\":851:861  token.call */\n      0xffffffffffffffffffffffffffffffffffffffff\n      and\n        /* \"mock-router/lib/contracts/libraries/TransferHelper.sol\":885:895  0xa9059cbb */\n      0xa9059cbb\n        /* \"mock-router/lib/contracts/libraries/TransferHelper.sol\":897:899  to */\n      dup6\n        /* \"mock-router/lib/contracts/libraries/TransferHelper.sol\":901:906  value */\n      dup6\n        /* \"mock-router/lib/contracts/libraries/TransferHelper.sol\":862:907  abi.encodeWithSelector(0xa9059cbb, to, value) */\n      add(0x24, mload(0x40))\n      tag_72\n      swap3\n      swap2\n      swap1\n      tag_59\n      jump\t// in\n    tag_72:\n      mload(0x40)\n      0x20\n      dup2\n      dup4\n      sub\n      sub\n      dup2\n      mstore\n      swap1\n      0x40\n      mstore\n      swap1\n      0xe0\n      shl\n      0x20\n      dup3\n      add\n      dup1\n      mload\n      0xffffffffffffffffffffffffffffffffffffffffffffffffffffffff\n      dup4\n      dup2\n      dup4\n      and\n      or\n      dup4\n      mstore\n      pop\n      pop\n      pop\n      pop\n        /* \"mock-router/lib/contracts/libraries/TransferHelper.sol\":851:908  token.call(abi.encodeWithSelector(0xa9059cbb, to, value)) */\n      mload(0x40)\n      tag_73\n      swap2\n      swap1\n      tag_61\n      jump\t// in\n    tag_73:\n      0x00\n      mload(0x40)\n      dup1\n      dup4\n      sub\n      dup2\n      0x00\n      dup7\n      gas\n      call\n      swap2\n      pop\n      pop\n      returndatasize\n      dup1\n      0x00\n      dup2\n      eq\n      tag_76\n      jumpi\n      mload(0x40)\n      swap2\n      pop\n      and(add(returndatasize, 0x3f), not(0x1f))\n      dup3\n      add\n      0x40\n      mstore\n      returndatasize\n      dup3\n      mstore\n      returndatasize\n      0x00\n      0x20\n      dup5\n      add\n      returndatacopy\n      jump(tag_75)\n    tag_76:\n      0x60\n      swap2\n      pop\n    tag_75:\n      pop\n        /* \"mock-router/lib/contracts/libraries/TransferHelper.sol\":815:908  (bool success, bytes memory data) = token.call(abi.encodeWithSelector(0xa9059cbb, to, value)) */\n      swap2\n      pop\n      swap2\n      pop\n        /* \"mock-router/lib/contracts/libraries/TransferHelper.sol\":939:946  success */\n      dup2\n        /* \"mock-router/lib/contracts/libraries/TransferHelper.sol\":939:996  success && (data.length == 0 || abi.decode(data, (bool))) */\n      dup1\n      iszero\n      tag_77\n      jumpi\n      pop\n        /* \"mock-router/lib/contracts/libraries/TransferHelper.sol\":966:967  0 */\n      0x00\n        /* \"mock-router/lib/contracts/libraries/TransferHelper.sol\":951:955  data */\n      dup2\n        /* \"mock-router/lib/contracts/libraries/TransferHelper.sol\":951:962  data.length */\n      mload\n        /* \"mock-router/lib/contracts/libraries/TransferHelper.sol\":951:967  data.length == 0 */\n      eq\n        /* \"mock-router/lib/contracts/libraries/TransferHelper.sol\":951:995  data.length == 0 || abi.decode(data, (bool)) */\n      dup1\n      tag_78\n      jumpi\n      pop\n        /* \"mock-router/lib/contracts/libraries/TransferHelper.sol\":982:986  data */\n      dup1\n        /* \"mock-router/lib/contracts/libraries/TransferHelper.sol\":971:995  abi.decode(data, (bool)) */\n      dup1\n      0x20\n      add\n      swap1\n      mload\n      dup2\n      add\n      swap1\n      tag_79\n      swap2\n      swap1\n      tag_28\n      jump\t// in\n    tag_79:\n        /* \"mock-router/lib/contracts/libraries/TransferHelper.sol\":951:995  data.length == 0 || abi.decode(data, (bool)) */\n    tag_78:\n        /* \"mock-router/lib/contracts/libraries/TransferHelper.sol\":939:996  success && (data.length == 0 || abi.decode(data, (bool))) */\n    tag_77:\n        /* \"mock-router/lib/contracts/libraries/TransferHelper.sol\":918:1067  require(... */\n      tag_80\n      jumpi\n      mload(0x40)\n      0x08c379a000000000000000000000000000000000000000000000000000000000\n      dup2\n      mstore\n      0x04\n      add\n      tag_81\n      swap1\n      tag_82\n      jump\t// in\n    tag_81:\n      mload(0x40)\n      dup1\n      swap2\n      sub\n      swap1\n      revert\n    tag_80:\n        /* \"mock-router/lib/contracts/libraries/TransferHelper.sol\":739:1074  {... */\n      pop\n      pop\n        /* \"mock-router/lib/contracts/libraries/TransferHelper.sol\":636:1074  function safeTransfer(... */\n      pop\n      pop\n      pop\n      jump\t// out\n        /* \"mock-router/lib/contracts/libraries/TransferHelper.sol\":1573:1787  function safeTransferETH(address to, uint256 value) internal {... */\n    tag_56:\n        /* \"mock-router/lib/contracts/libraries/TransferHelper.sol\":1645:1657  bool success */\n      0x00\n        /* \"mock-router/lib/contracts/libraries/TransferHelper.sol\":1663:1665  to */\n      dup3\n        /* \"mock-router/lib/contracts/libraries/TransferHelper.sol\":1663:1670  to.call */\n      0xffffffffffffffffffffffffffffffffffffffff\n      and\n        /* \"mock-router/lib/contracts/libraries/TransferHelper.sol\":1678:1683  value */\n      dup3\n        /* \"mock-router/lib/contracts/libraries/TransferHelper.sol\":1695:1696  0 */\n      0x00\n        /* \"mock-router/lib/contracts/libraries/TransferHelper.sol\":1685:1697  new bytes(0) */\n      0xffffffffffffffff\n      dup2\n      gt\n      iszero\n      tag_84\n      jumpi\n      tag_85\n      tag_86\n      jump\t// in\n    tag_85:\n    tag_84:\n      mload(0x40)\n      swap1\n      dup1\n      dup3\n      mstore\n      dup1\n      0x1f\n      add\n      not(0x1f)\n      and\n      0x20\n      add\n      dup3\n      add\n      0x40\n      mstore\n      dup1\n      iszero\n      tag_87\n      jumpi\n      dup2\n      0x20\n      add\n      0x01\n      dup3\n      mul\n      dup1\n      calldatasize\n      dup4\n      calldatacopy\n      dup1\n      dup3\n      add\n      swap2\n      pop\n      pop\n      swap1\n      pop\n    tag_87:\n      pop\n        /* \"mock-router/lib/contracts/libraries/TransferHelper.sol\":1663:1698  to.call{value: value}(new bytes(0)) */\n      mload(0x40)\n      tag_88\n      swap2\n      swap1\n      tag_61\n      jump\t// in\n    tag_88:\n      0x00\n      mload(0x40)\n      dup1\n      dup4\n      sub\n      dup2\n      dup6\n      dup8\n      gas\n      call\n      swap3\n      pop\n      pop\n      pop\n      returndatasize\n      dup1\n      0x00\n      dup2\n      eq\n      tag_91\n      jumpi\n      mload(0x40)\n      swap2\n      pop\n      and(add(returndatasize, 0x3f), not(0x1f))\n      dup3\n      add\n      0x40\n      mstore\n      returndatasize\n      dup3\n      mstore\n      returndatasize\n      0x00\n      0x20\n      dup5\n      add\n      returndatacopy\n      jump(tag_90)\n    tag_91:\n      0x60\n      swap2\n      pop\n    tag_90:\n      pop\n        /* \"mock-router/lib/contracts/libraries/TransferHelper.sol\":1644:1698  (bool success, ) = to.call{value: value}(new bytes(0)) */\n      pop\n      swap1\n      pop\n        /* \"mock-router/lib/contracts/libraries/TransferHelper.sol\":1716:1723  success */\n      dup1\n        /* \"mock-router/lib/contracts/libraries/TransferHelper.sol\":1708:1780  require(success, 'TransferHelper::safeTransferETH: ETH transfer failed') */\n      tag_92\n      jumpi\n      mload(0x40)\n      0x08c379a000000000000000000000000000000000000000000000000000000000\n      dup2\n      mstore\n      0x04\n      add\n      tag_93\n      swap1\n      tag_94\n      jump\t// in\n    tag_93:\n      mload(0x40)\n      dup1\n      swap2\n      sub\n      swap1\n      revert\n    tag_92:\n        /* \"mock-router/lib/contracts/libraries/TransferHelper.sol\":1634:1787  {... */\n      pop\n        /* \"mock-router/lib/contracts/libraries/TransferHelper.sol\":1573:1787  function safeTransferETH(address to, uint256 value) internal {... */\n      pop\n      pop\n      jump\t// out\n        /* \"#utility.yul\":88:205   */\n    tag_96:\n        /* \"#utility.yul\":197:198   */\n      0x00\n        /* \"#utility.yul\":194:195   */\n      dup1\n        /* \"#utility.yul\":187:199   */\n      revert\n        /* \"#utility.yul\":334:460   */\n    tag_98:\n        /* \"#utility.yul\":371:378   */\n      0x00\n        /* \"#utility.yul\":411:453   */\n      0xffffffffffffffffffffffffffffffffffffffff\n        /* \"#utility.yul\":404:409   */\n      dup3\n        /* \"#utility.yul\":400:454   */\n      and\n        /* \"#utility.yul\":389:454   */\n      swap1\n      pop\n        /* \"#utility.yul\":334:460   */\n      swap2\n      swap1\n      pop\n      jump\t// out\n        /* \"#utility.yul\":466:562   */\n    tag_99:\n        /* \"#utility.yul\":503:510   */\n      0x00\n        /* \"#utility.yul\":532:556   */\n      tag_136\n        /* \"#utility.yul\":550:555   */\n      dup3\n        /* \"#utility.yul\":532:556   */\n      tag_98\n      jump\t// in\n    tag_136:\n        /* \"#utility.yul\":521:556   */\n      swap1\n      pop\n        /* \"#utility.yul\":466:562   */\n      swap2\n      swap1\n      pop\n      jump\t// out\n        /* \"#utility.yul\":568:690   */\n    tag_100:\n        /* \"#utility.yul\":641:665   */\n      tag_138\n        /* \"#utility.yul\":659:664   */\n      dup2\n        /* \"#utility.yul\":641:665   */\n      tag_99\n      jump\t// in\n    tag_138:\n        /* \"#utility.yul\":634:639   */\n      dup2\n        /* \"#utility.yul\":631:666   */\n      eq\n        /* \"#utility.yul\":621:684   */\n      tag_139\n      jumpi\n        /* \"#utility.yul\":680:681   */\n      0x00\n        /* \"#utility.yul\":677:678   */\n      dup1\n        /* \"#utility.yul\":670:682   */\n      revert\n        /* \"#utility.yul\":621:684   */\n    tag_139:\n        /* \"#utility.yul\":568:690   */\n      pop\n      jump\t// out\n        /* \"#utility.yul\":696:835   */\n    tag_101:\n        /* \"#utility.yul\":742:747   */\n      0x00\n        /* \"#utility.yul\":780:786   */\n      dup2\n        /* \"#utility.yul\":767:787   */\n      calldataload\n        /* \"#utility.yul\":758:787   */\n      swap1\n      pop\n        /* \"#utility.yul\":796:829   */\n      tag_141\n        /* \"#utility.yul\":823:828   */\n      dup2\n        /* \"#utility.yul\":796:829   */\n      tag_100\n      jump\t// in\n    tag_141:\n        /* \"#utility.yul\":696:835   */\n      swap3\n      swap2\n      pop\n      pop\n      jump\t// out\n        /* \"#utility.yul\":841:918   */\n    tag_102:\n        /* \"#utility.yul\":878:885   */\n      0x00\n        /* \"#utility.yul\":907:912   */\n      dup2\n        /* \"#utility.yul\":896:912   */\n      swap1\n      pop\n        /* \"#utility.yul\":841:918   */\n      swap2\n      swap1\n      pop\n      jump\t// out\n        /* \"#utility.yul\":924:1046   */\n    tag_103:\n        /* \"#utility.yul\":997:1021   */\n      tag_144\n        /* \"#utility.yul\":1015:1020   */\n      dup2\n        /* \"#utility.yul\":997:1021   */\n      tag_102\n      jump\t// in\n    tag_144:\n        /* \"#utility.yul\":990:995   */\n      dup2\n        /* \"#utility.yul\":987:1022   */\n      eq\n        /* \"#utility.yul\":977:1040   */\n      tag_145\n      jumpi\n        /* \"#utility.yul\":1036:1037   */\n      0x00\n        /* \"#utility.yul\":1033:1034   */\n      dup1\n        /* \"#utility.yul\":1026:1038   */\n      revert\n        /* \"#utility.yul\":977:1040   */\n    tag_145:\n        /* \"#utility.yul\":924:1046   */\n      pop\n      jump\t// out\n        /* \"#utility.yul\":1052:1191   */\n    tag_104:\n        /* \"#utility.yul\":1098:1103   */\n      0x00\n        /* \"#utility.yul\":1136:1142   */\n      dup2\n        /* \"#utility.yul\":1123:1143   */\n      calldataload\n        /* \"#utility.yul\":1114:1143   */\n      swap1\n      pop\n        /* \"#utility.yul\":1152:1185   */\n      tag_147\n        /* \"#utility.yul\":1179:1184   */\n      dup2\n        /* \"#utility.yul\":1152:1185   */\n      tag_103\n      jump\t// in\n    tag_147:\n        /* \"#utility.yul\":1052:1191   */\n      swap3\n      swap2\n      pop\n      pop\n      jump\t// out\n        /* \"#utility.yul\":1197:2108   */\n    tag_9:\n        /* \"#utility.yul\":1292:1298   */\n      0x00\n        /* \"#utility.yul\":1300:1306   */\n      dup1\n        /* \"#utility.yul\":1308:1314   */\n      0x00\n        /* \"#utility.yul\":1316:1322   */\n      dup1\n        /* \"#utility.yul\":1324:1330   */\n      0x00\n        /* \"#utility.yul\":1373:1376   */\n      0xa0\n        /* \"#utility.yul\":1361:1370   */\n      dup7\n        /* \"#utility.yul\":1352:1359   */\n      dup9\n        /* \"#utility.yul\":1348:1371   */\n      sub\n        /* \"#utility.yul\":1344:1377   */\n      slt\n        /* \"#utility.yul\":1341:1461   */\n      iszero\n      tag_149\n      jumpi\n        /* \"#utility.yul\":1380:1459   */\n      tag_150\n      tag_96\n      jump\t// in\n    tag_150:\n        /* \"#utility.yul\":1341:1461   */\n    tag_149:\n        /* \"#utility.yul\":1500:1501   */\n      0x00\n        /* \"#utility.yul\":1525:1578   */\n      tag_151\n        /* \"#utility.yul\":1570:1577   */\n      dup9\n        /* \"#utility.yul\":1561:1567   */\n      dup3\n        /* \"#utility.yul\":1550:1559   */\n      dup10\n        /* \"#utility.yul\":1546:1568   */\n      add\n        /* \"#utility.yul\":1525:1578   */\n      tag_101\n      jump\t// in\n    tag_151:\n        /* \"#utility.yul\":1515:1578   */\n      swap6\n      pop\n        /* \"#utility.yul\":1471:1588   */\n      pop\n        /* \"#utility.yul\":1627:1629   */\n      0x20\n        /* \"#utility.yul\":1653:1706   */\n      tag_152\n        /* \"#utility.yul\":1698:1705   */\n      dup9\n        /* \"#utility.yul\":1689:1695   */\n      dup3\n        /* \"#utility.yul\":1678:1687   */\n      dup10\n        /* \"#utility.yul\":1674:1696   */\n      add\n        /* \"#utility.yul\":1653:1706   */\n      tag_104\n      jump\t// in\n    tag_152:\n        /* \"#utility.yul\":1643:1706   */\n      swap5\n      pop\n        /* \"#utility.yul\":1598:1716   */\n      pop\n        /* \"#utility.yul\":1755:1757   */\n      0x40\n        /* \"#utility.yul\":1781:1834   */\n      tag_153\n        /* \"#utility.yul\":1826:1833   */\n      dup9\n        /* \"#utility.yul\":1817:1823   */\n      dup3\n        /* \"#utility.yul\":1806:1815   */\n      dup10\n        /* \"#utility.yul\":1802:1824   */\n      add\n        /* \"#utility.yul\":1781:1834   */\n      tag_104\n      jump\t// in\n    tag_153:\n        /* \"#utility.yul\":1771:1834   */\n      swap4\n      pop\n        /* \"#utility.yul\":1726:1844   */\n      pop\n        /* \"#utility.yul\":1883:1885   */\n      0x60\n        /* \"#utility.yul\":1909:1962   */\n      tag_154\n        /* \"#utility.yul\":1954:1961   */\n      dup9\n        /* \"#utility.yul\":1945:1951   */\n      dup3\n        /* \"#utility.yul\":1934:1943   */\n      dup10\n        /* \"#utility.yul\":1930:1952   */\n      add\n        /* \"#utility.yul\":1909:1962   */\n      tag_101\n      jump\t// in\n    tag_154:\n        /* \"#utility.yul\":1899:1962   */\n      swap3\n      pop\n        /* \"#utility.yul\":1854:1972   */\n      pop\n        /* \"#utility.yul\":2011:2014   */\n      0x80\n        /* \"#utility.yul\":2038:2091   */\n      tag_155\n        /* \"#utility.yul\":2083:2090   */\n      dup9\n        /* \"#utility.yul\":2074:2080   */\n      dup3\n        /* \"#utility.yul\":2063:2072   */\n      dup10\n        /* \"#utility.yul\":2059:2081   */\n      add\n        /* \"#utility.yul\":2038:2091   */\n      tag_104\n      jump\t// in\n    tag_155:\n        /* \"#utility.yul\":2028:2091   */\n      swap2\n      pop\n        /* \"#utility.yul\":1982:2101   */\n      pop\n        /* \"#utility.yul\":1197:2108   */\n      swap3\n      swap6\n      pop\n      swap3\n      swap6\n      swap1\n      swap4\n      pop\n      jump\t// out\n        /* \"#utility.yul\":2114:2232   */\n    tag_105:\n        /* \"#utility.yul\":2201:2225   */\n      tag_157\n        /* \"#utility.yul\":2219:2224   */\n      dup2\n        /* \"#utility.yul\":2201:2225   */\n      tag_99\n      jump\t// in\n    tag_157:\n        /* \"#utility.yul\":2196:2199   */\n      dup3\n        /* \"#utility.yul\":2189:2226   */\n      mstore\n        /* \"#utility.yul\":2114:2232   */\n      pop\n      pop\n      jump\t// out\n        /* \"#utility.yul\":2238:2460   */\n    tag_13:\n        /* \"#utility.yul\":2331:2335   */\n      0x00\n        /* \"#utility.yul\":2369:2371   */\n      0x20\n        /* \"#utility.yul\":2358:2367   */\n      dup3\n        /* \"#utility.yul\":2354:2372   */\n      add\n        /* \"#utility.yul\":2346:2372   */\n      swap1\n      pop\n        /* \"#utility.yul\":2382:2453   */\n      tag_159\n        /* \"#utility.yul\":2450:2451   */\n      0x00\n        /* \"#utility.yul\":2439:2448   */\n      dup4\n        /* \"#utility.yul\":2435:2452   */\n      add\n        /* \"#utility.yul\":2426:2432   */\n      dup5\n        /* \"#utility.yul\":2382:2453   */\n      tag_105\n      jump\t// in\n    tag_159:\n        /* \"#utility.yul\":2238:2460   */\n      swap3\n      swap2\n      pop\n      pop\n      jump\t// out\n        /* \"#utility.yul\":2466:2609   */\n    tag_106:\n        /* \"#utility.yul\":2523:2528   */\n      0x00\n        /* \"#utility.yul\":2554:2560   */\n      dup2\n        /* \"#utility.yul\":2548:2561   */\n      mload\n        /* \"#utility.yul\":2539:2561   */\n      swap1\n      pop\n        /* \"#utility.yul\":2570:2603   */\n      tag_161\n        /* \"#utility.yul\":2597:2602   */\n      dup2\n        /* \"#utility.yul\":2570:2603   */\n      tag_100\n      jump\t// in\n    tag_161:\n        /* \"#utility.yul\":2466:2609   */\n      swap3\n      swap2\n      pop\n      pop\n      jump\t// out\n        /* \"#utility.yul\":2615:2966   */\n    tag_17:\n        /* \"#utility.yul\":2685:2691   */\n      0x00\n        /* \"#utility.yul\":2734:2736   */\n      0x20\n        /* \"#utility.yul\":2722:2731   */\n      dup3\n        /* \"#utility.yul\":2713:2720   */\n      dup5\n        /* \"#utility.yul\":2709:2732   */\n      sub\n        /* \"#utility.yul\":2705:2737   */\n      slt\n        /* \"#utility.yul\":2702:2821   */\n      iszero\n      tag_163\n      jumpi\n        /* \"#utility.yul\":2740:2819   */\n      tag_164\n      tag_96\n      jump\t// in\n    tag_164:\n        /* \"#utility.yul\":2702:2821   */\n    tag_163:\n        /* \"#utility.yul\":2860:2861   */\n      0x00\n        /* \"#utility.yul\":2885:2949   */\n      tag_165\n        /* \"#utility.yul\":2941:2948   */\n      dup5\n        /* \"#utility.yul\":2932:2938   */\n      dup3\n        /* \"#utility.yul\":2921:2930   */\n      dup6\n        /* \"#utility.yul\":2917:2939   */\n      add\n        /* \"#utility.yul\":2885:2949   */\n      tag_106\n      jump\t// in\n    tag_165:\n        /* \"#utility.yul\":2875:2949   */\n      swap2\n      pop\n        /* \"#utility.yul\":2831:2959   */\n      pop\n        /* \"#utility.yul\":2615:2966   */\n      swap3\n      swap2\n      pop\n      pop\n      jump\t// out\n        /* \"#utility.yul\":2972:3115   */\n    tag_107:\n        /* \"#utility.yul\":3029:3034   */\n      0x00\n        /* \"#utility.yul\":3060:3066   */\n      dup2\n        /* \"#utility.yul\":3054:3067   */\n      mload\n        /* \"#utility.yul\":3045:3067   */\n      swap1\n      pop\n        /* \"#utility.yul\":3076:3109   */\n      tag_167\n        /* \"#utility.yul\":3103:3108   */\n      dup2\n        /* \"#utility.yul\":3076:3109   */\n      tag_103\n      jump\t// in\n    tag_167:\n        /* \"#utility.yul\":2972:3115   */\n      swap3\n      swap2\n      pop\n      pop\n      jump\t// out\n        /* \"#utility.yul\":3121:3472   */\n    tag_22:\n        /* \"#utility.yul\":3191:3197   */\n      0x00\n        /* \"#utility.yul\":3240:3242   */\n      0x20\n        /* \"#utility.yul\":3228:3237   */\n      dup3\n        /* \"#utility.yul\":3219:3226   */\n      dup5\n        /* \"#utility.yul\":3215:3238   */\n      sub\n        /* \"#utility.yul\":3211:3243   */\n      slt\n        /* \"#utility.yul\":3208:3327   */\n      iszero\n      tag_169\n      jumpi\n        /* \"#utility.yul\":3246:3325   */\n      tag_170\n      tag_96\n      jump\t// in\n    tag_170:\n        /* \"#utility.yul\":3208:3327   */\n    tag_169:\n        /* \"#utility.yul\":3366:3367   */\n      0x00\n        /* \"#utility.yul\":3391:3455   */\n      tag_171\n        /* \"#utility.yul\":3447:3454   */\n      dup5\n        /* \"#utility.yul\":3438:3444   */\n      dup3\n        /* \"#utility.yul\":3427:3436   */\n      dup6\n        /* \"#utility.yul\":3423:3445   */\n      add\n        /* \"#utility.yul\":3391:3455   */\n      tag_107\n      jump\t// in\n    tag_171:\n        /* \"#utility.yul\":3381:3455   */\n      swap2\n      pop\n        /* \"#utility.yul\":3337:3465   */\n      pop\n        /* \"#utility.yul\":3121:3472   */\n      swap3\n      swap2\n      pop\n      pop\n      jump\t// out\n        /* \"#utility.yul\":3478:3596   */\n    tag_108:\n        /* \"#utility.yul\":3565:3589   */\n      tag_173\n        /* \"#utility.yul\":3583:3588   */\n      dup2\n        /* \"#utility.yul\":3565:3589   */\n      tag_102\n      jump\t// in\n    tag_173:\n        /* \"#utility.yul\":3560:3563   */\n      dup3\n        /* \"#utility.yul\":3553:3590   */\n      mstore\n        /* \"#utility.yul\":3478:3596   */\n      pop\n      pop\n      jump\t// out\n        /* \"#utility.yul\":3602:4044   */\n    tag_24:\n        /* \"#utility.yul\":3751:3755   */\n      0x00\n        /* \"#utility.yul\":3789:3791   */\n      0x60\n        /* \"#utility.yul\":3778:3787   */\n      dup3\n        /* \"#utility.yul\":3774:3792   */\n      add\n        /* \"#utility.yul\":3766:3792   */\n      swap1\n      pop\n        /* \"#utility.yul\":3802:3873   */\n      tag_175\n        /* \"#utility.yul\":3870:3871   */\n      0x00\n        /* \"#utility.yul\":3859:3868   */\n      dup4\n        /* \"#utility.yul\":3855:3872   */\n      add\n        /* \"#utility.yul\":3846:3852   */\n      dup7\n        /* \"#utility.yul\":3802:3873   */\n      tag_105\n      jump\t// in\n    tag_175:\n        /* \"#utility.yul\":3883:3955   */\n      tag_176\n        /* \"#utility.yul\":3951:3953   */\n      0x20\n        /* \"#utility.yul\":3940:3949   */\n      dup4\n        /* \"#utility.yul\":3936:3954   */\n      add\n        /* \"#utility.yul\":3927:3933   */\n      dup6\n        /* \"#utility.yul\":3883:3955   */\n      tag_105\n      jump\t// in\n    tag_176:\n        /* \"#utility.yul\":3965:4037   */\n      tag_177\n        /* \"#utility.yul\":4033:4035   */\n      0x40\n        /* \"#utility.yul\":4022:4031   */\n      dup4\n        /* \"#utility.yul\":4018:4036   */\n      add\n        /* \"#utility.yul\":4009:4015   */\n      dup5\n        /* \"#utility.yul\":3965:4037   */\n      tag_108\n      jump\t// in\n    tag_177:\n        /* \"#utility.yul\":3602:4044   */\n      swap5\n      swap4\n      pop\n      pop\n      pop\n      pop\n      jump\t// out\n        /* \"#utility.yul\":4050:4140   */\n    tag_109:\n        /* \"#utility.yul\":4084:4091   */\n      0x00\n        /* \"#utility.yul\":4127:4132   */\n      dup2\n        /* \"#utility.yul\":4120:4133   */\n      iszero\n        /* \"#utility.yul\":4113:4134   */\n      iszero\n        /* \"#utility.yul\":4102:4134   */\n      swap1\n      pop\n        /* \"#utility.yul\":4050:4140   */\n      swap2\n      swap1\n      pop\n      jump\t// out\n        /* \"#utility.yul\":4146:4262   */\n    tag_110:\n        /* \"#utility.yul\":4216:4237   */\n      tag_180\n        /* \"#utility.yul\":4231:4236   */\n      dup2\n        /* \"#utility.yul\":4216:4237   */\n      tag_109\n      jump\t// in\n    tag_180:\n        /* \"#utility.yul\":4209:4214   */\n      dup2\n        /* \"#utility.yul\":4206:4238   */\n      eq\n        /* \"#utility.yul\":4196:4256   */\n      tag_181\n      jumpi\n        /* \"#utility.yul\":4252:4253   */\n      0x00\n        /* \"#utility.yul\":4249:4250   */\n      dup1\n        /* \"#utility.yul\":4242:4254   */\n      revert\n        /* \"#utility.yul\":4196:4256   */\n    tag_181:\n        /* \"#utility.yul\":4146:4262   */\n      pop\n      jump\t// out\n        /* \"#utility.yul\":4268:4405   */\n    tag_111:\n        /* \"#utility.yul\":4322:4327   */\n      0x00\n        /* \"#utility.yul\":4353:4359   */\n      dup2\n        /* \"#utility.yul\":4347:4360   */\n      mload\n        /* \"#utility.yul\":4338:4360   */\n      swap1\n      pop\n        /* \"#utility.yul\":4369:4399   */\n      tag_183\n        /* \"#utility.yul\":4393:4398   */\n      dup2\n        /* \"#utility.yul\":4369:4399   */\n      tag_110\n      jump\t// in\n    tag_183:\n        /* \"#utility.yul\":4268:4405   */\n      swap3\n      swap2\n      pop\n      pop\n      jump\t// out\n        /* \"#utility.yul\":4411:4756   */\n    tag_28:\n        /* \"#utility.yul\":4478:4484   */\n      0x00\n        /* \"#utility.yul\":4527:4529   */\n      0x20\n        /* \"#utility.yul\":4515:4524   */\n      dup3\n        /* \"#utility.yul\":4506:4513   */\n      dup5\n        /* \"#utility.yul\":4502:4525   */\n      sub\n        /* \"#utility.yul\":4498:4530   */\n      slt\n        /* \"#utility.yul\":4495:4614   */\n      iszero\n      tag_185\n      jumpi\n        /* \"#utility.yul\":4533:4612   */\n      tag_186\n      tag_96\n      jump\t// in\n    tag_186:\n        /* \"#utility.yul\":4495:4614   */\n    tag_185:\n        /* \"#utility.yul\":4653:4654   */\n      0x00\n        /* \"#utility.yul\":4678:4739   */\n      tag_187\n        /* \"#utility.yul\":4731:4738   */\n      dup5\n        /* \"#utility.yul\":4722:4728   */\n      dup3\n        /* \"#utility.yul\":4711:4720   */\n      dup6\n        /* \"#utility.yul\":4707:4729   */\n      add\n        /* \"#utility.yul\":4678:4739   */\n      tag_111\n      jump\t// in\n    tag_187:\n        /* \"#utility.yul\":4668:4739   */\n      swap2\n      pop\n        /* \"#utility.yul\":4624:4749   */\n      pop\n        /* \"#utility.yul\":4411:4756   */\n      swap3\n      swap2\n      pop\n      pop\n      jump\t// out\n        /* \"#utility.yul\":4762:4931   */\n    tag_112:\n        /* \"#utility.yul\":4846:4857   */\n      0x00\n        /* \"#utility.yul\":4880:4886   */\n      dup3\n        /* \"#utility.yul\":4875:4878   */\n      dup3\n        /* \"#utility.yul\":4868:4887   */\n      mstore\n        /* \"#utility.yul\":4920:4924   */\n      0x20\n        /* \"#utility.yul\":4915:4918   */\n      dup3\n        /* \"#utility.yul\":4911:4925   */\n      add\n        /* \"#utility.yul\":4896:4925   */\n      swap1\n      pop\n        /* \"#utility.yul\":4762:4931   */\n      swap3\n      swap2\n      pop\n      pop\n      jump\t// out\n        /* \"#utility.yul\":4937:5107   */\n    tag_113:\n        /* \"#utility.yul\":5077:5099   */\n      0x5452414e534645525f46524f4d5f4641494c4544000000000000000000000000\n        /* \"#utility.yul\":5073:5074   */\n      0x00\n        /* \"#utility.yul\":5065:5071   */\n      dup3\n        /* \"#utility.yul\":5061:5075   */\n      add\n        /* \"#utility.yul\":5054:5100   */\n      mstore\n        /* \"#utility.yul\":4937:5107   */\n      pop\n      jump\t// out\n        /* \"#utility.yul\":5113:5479   */\n    tag_114:\n        /* \"#utility.yul\":5255:5258   */\n      0x00\n        /* \"#utility.yul\":5276:5343   */\n      tag_191\n        /* \"#utility.yul\":5340:5342   */\n      0x14\n        /* \"#utility.yul\":5335:5338   */\n      dup4\n        /* \"#utility.yul\":5276:5343   */\n      tag_112\n      jump\t// in\n    tag_191:\n        /* \"#utility.yul\":5269:5343   */\n      swap2\n      pop\n        /* \"#utility.yul\":5352:5445   */\n      tag_192\n        /* \"#utility.yul\":5441:5444   */\n      dup3\n        /* \"#utility.yul\":5352:5445   */\n      tag_113\n      jump\t// in\n    tag_192:\n        /* \"#utility.yul\":5470:5472   */\n      0x20\n        /* \"#utility.yul\":5465:5468   */\n      dup3\n        /* \"#utility.yul\":5461:5473   */\n      add\n        /* \"#utility.yul\":5454:5473   */\n      swap1\n      pop\n        /* \"#utility.yul\":5113:5479   */\n      swap2\n      swap1\n      pop\n      jump\t// out\n        /* \"#utility.yul\":5485:5904   */\n    tag_31:\n        /* \"#utility.yul\":5651:5655   */\n      0x00\n        /* \"#utility.yul\":5689:5691   */\n      0x20\n        /* \"#utility.yul\":5678:5687   */\n      dup3\n        /* \"#utility.yul\":5674:5692   */\n      add\n        /* \"#utility.yul\":5666:5692   */\n      swap1\n      pop\n        /* \"#utility.yul\":5738:5747   */\n      dup2\n        /* \"#utility.yul\":5732:5736   */\n      dup2\n        /* \"#utility.yul\":5728:5748   */\n      sub\n        /* \"#utility.yul\":5724:5725   */\n      0x00\n        /* \"#utility.yul\":5713:5722   */\n      dup4\n        /* \"#utility.yul\":5709:5726   */\n      add\n        /* \"#utility.yul\":5702:5749   */\n      mstore\n        /* \"#utility.yul\":5766:5897   */\n      tag_194\n        /* \"#utility.yul\":5892:5896   */\n      dup2\n        /* \"#utility.yul\":5766:5897   */\n      tag_114\n      jump\t// in\n    tag_194:\n        /* \"#utility.yul\":5758:5897   */\n      swap1\n      pop\n        /* \"#utility.yul\":5485:5904   */\n      swap2\n      swap1\n      pop\n      jump\t// out\n        /* \"#utility.yul\":5910:5995   */\n    tag_115:\n        /* \"#utility.yul\":5955:5962   */\n      0x00\n        /* \"#utility.yul\":5984:5989   */\n      dup2\n        /* \"#utility.yul\":5973:5989   */\n      swap1\n      pop\n        /* \"#utility.yul\":5910:5995   */\n      swap2\n      swap1\n      pop\n      jump\t// out\n        /* \"#utility.yul\":6001:6061   */\n    tag_116:\n        /* \"#utility.yul\":6029:6032   */\n      0x00\n        /* \"#utility.yul\":6050:6055   */\n      dup2\n        /* \"#utility.yul\":6043:6055   */\n      swap1\n      pop\n        /* \"#utility.yul\":6001:6061   */\n      swap2\n      swap1\n      pop\n      jump\t// out\n        /* \"#utility.yul\":6067:6225   */\n    tag_117:\n        /* \"#utility.yul\":6125:6134   */\n      0x00\n        /* \"#utility.yul\":6158:6219   */\n      tag_198\n        /* \"#utility.yul\":6176:6218   */\n      tag_199\n        /* \"#utility.yul\":6185:6217   */\n      tag_200\n        /* \"#utility.yul\":6211:6216   */\n      dup5\n        /* \"#utility.yul\":6185:6217   */\n      tag_115\n      jump\t// in\n    tag_200:\n        /* \"#utility.yul\":6176:6218   */\n      tag_116\n      jump\t// in\n    tag_199:\n        /* \"#utility.yul\":6158:6219   */\n      tag_102\n      jump\t// in\n    tag_198:\n        /* \"#utility.yul\":6145:6219   */\n      swap1\n      pop\n        /* \"#utility.yul\":6067:6225   */\n      swap2\n      swap1\n      pop\n      jump\t// out\n        /* \"#utility.yul\":6231:6378   */\n    tag_118:\n        /* \"#utility.yul\":6326:6371   */\n      tag_202\n        /* \"#utility.yul\":6365:6370   */\n      dup2\n        /* \"#utility.yul\":6326:6371   */\n      tag_117\n      jump\t// in\n    tag_202:\n        /* \"#utility.yul\":6321:6324   */\n      dup3\n        /* \"#utility.yul\":6314:6372   */\n      mstore\n        /* \"#utility.yul\":6231:6378   */\n      pop\n      pop\n      jump\t// out\n        /* \"#utility.yul\":6384:6969   */\n    tag_33:\n        /* \"#utility.yul\":6577:6581   */\n      0x00\n        /* \"#utility.yul\":6615:6618   */\n      0x80\n        /* \"#utility.yul\":6604:6613   */\n      dup3\n        /* \"#utility.yul\":6600:6619   */\n      add\n        /* \"#utility.yul\":6592:6619   */\n      swap1\n      pop\n        /* \"#utility.yul\":6629:6700   */\n      tag_204\n        /* \"#utility.yul\":6697:6698   */\n      0x00\n        /* \"#utility.yul\":6686:6695   */\n      dup4\n        /* \"#utility.yul\":6682:6699   */\n      add\n        /* \"#utility.yul\":6673:6679   */\n      dup8\n        /* \"#utility.yul\":6629:6700   */\n      tag_108\n      jump\t// in\n    tag_204:\n        /* \"#utility.yul\":6710:6790   */\n      tag_205\n        /* \"#utility.yul\":6786:6788   */\n      0x20\n        /* \"#utility.yul\":6775:6784   */\n      dup4\n        /* \"#utility.yul\":6771:6789   */\n      add\n        /* \"#utility.yul\":6762:6768   */\n      dup7\n        /* \"#utility.yul\":6710:6790   */\n      tag_118\n      jump\t// in\n    tag_205:\n        /* \"#utility.yul\":6800:6880   */\n      tag_206\n        /* \"#utility.yul\":6876:6878   */\n      0x40\n        /* \"#utility.yul\":6865:6874   */\n      dup4\n        /* \"#utility.yul\":6861:6879   */\n      add\n        /* \"#utility.yul\":6852:6858   */\n      dup6\n        /* \"#utility.yul\":6800:6880   */\n      tag_118\n      jump\t// in\n    tag_206:\n        /* \"#utility.yul\":6890:6962   */\n      tag_207\n        /* \"#utility.yul\":6958:6960   */\n      0x60\n        /* \"#utility.yul\":6947:6956   */\n      dup4\n        /* \"#utility.yul\":6943:6961   */\n      add\n        /* \"#utility.yul\":6934:6940   */\n      dup5\n        /* \"#utility.yul\":6890:6962   */\n      tag_108\n      jump\t// in\n    tag_207:\n        /* \"#utility.yul\":6384:6969   */\n      swap6\n      swap5\n      pop\n      pop\n      pop\n      pop\n      pop\n      jump\t// out\n        /* \"#utility.yul\":6975:7482   */\n    tag_37:\n        /* \"#utility.yul\":7054:7060   */\n      0x00\n        /* \"#utility.yul\":7062:7068   */\n      dup1\n        /* \"#utility.yul\":7111:7113   */\n      0x40\n        /* \"#utility.yul\":7099:7108   */\n      dup4\n        /* \"#utility.yul\":7090:7097   */\n      dup6\n        /* \"#utility.yul\":7086:7109   */\n      sub\n        /* \"#utility.yul\":7082:7114   */\n      slt\n        /* \"#utility.yul\":7079:7198   */\n      iszero\n      tag_209\n      jumpi\n        /* \"#utility.yul\":7117:7196   */\n      tag_210\n      tag_96\n      jump\t// in\n    tag_210:\n        /* \"#utility.yul\":7079:7198   */\n    tag_209:\n        /* \"#utility.yul\":7237:7238   */\n      0x00\n        /* \"#utility.yul\":7262:7326   */\n      tag_211\n        /* \"#utility.yul\":7318:7325   */\n      dup6\n        /* \"#utility.yul\":7309:7315   */\n      dup3\n        /* \"#utility.yul\":7298:7307   */\n      dup7\n        /* \"#utility.yul\":7294:7316   */\n      add\n        /* \"#utility.yul\":7262:7326   */\n      tag_107\n      jump\t// in\n    tag_211:\n        /* \"#utility.yul\":7252:7326   */\n      swap3\n      pop\n        /* \"#utility.yul\":7208:7336   */\n      pop\n        /* \"#utility.yul\":7375:7377   */\n      0x20\n        /* \"#utility.yul\":7401:7465   */\n      tag_212\n        /* \"#utility.yul\":7457:7464   */\n      dup6\n        /* \"#utility.yul\":7448:7454   */\n      dup3\n        /* \"#utility.yul\":7437:7446   */\n      dup7\n        /* \"#utility.yul\":7433:7455   */\n      add\n        /* \"#utility.yul\":7401:7465   */\n      tag_107\n      jump\t// in\n    tag_212:\n        /* \"#utility.yul\":7391:7465   */\n      swap2\n      pop\n        /* \"#utility.yul\":7346:7475   */\n      pop\n        /* \"#utility.yul\":6975:7482   */\n      swap3\n      pop\n      swap3\n      swap1\n      pop\n      jump\t// out\n        /* \"#utility.yul\":7488:8263   */\n    tag_41:\n        /* \"#utility.yul\":7721:7725   */\n      0x00\n        /* \"#utility.yul\":7759:7762   */\n      0xc0\n        /* \"#utility.yul\":7748:7757   */\n      dup3\n        /* \"#utility.yul\":7744:7763   */\n      add\n        /* \"#utility.yul\":7736:7763   */\n      swap1\n      pop\n        /* \"#utility.yul\":7773:7844   */\n      tag_214\n        /* \"#utility.yul\":7841:7842   */\n      0x00\n        /* \"#utility.yul\":7830:7839   */\n      dup4\n        /* \"#utility.yul\":7826:7843   */\n      add\n        /* \"#utility.yul\":7817:7823   */\n      dup10\n        /* \"#utility.yul\":7773:7844   */\n      tag_105\n      jump\t// in\n    tag_214:\n        /* \"#utility.yul\":7854:7926   */\n      tag_215\n        /* \"#utility.yul\":7922:7924   */\n      0x20\n        /* \"#utility.yul\":7911:7920   */\n      dup4\n        /* \"#utility.yul\":7907:7925   */\n      add\n        /* \"#utility.yul\":7898:7904   */\n      dup9\n        /* \"#utility.yul\":7854:7926   */\n      tag_108\n      jump\t// in\n    tag_215:\n        /* \"#utility.yul\":7936:8008   */\n      tag_216\n        /* \"#utility.yul\":8004:8006   */\n      0x40\n        /* \"#utility.yul\":7993:8002   */\n      dup4\n        /* \"#utility.yul\":7989:8007   */\n      add\n        /* \"#utility.yul\":7980:7986   */\n      dup8\n        /* \"#utility.yul\":7936:8008   */\n      tag_108\n      jump\t// in\n    tag_216:\n        /* \"#utility.yul\":8018:8090   */\n      tag_217\n        /* \"#utility.yul\":8086:8088   */\n      0x60\n        /* \"#utility.yul\":8075:8084   */\n      dup4\n        /* \"#utility.yul\":8071:8089   */\n      add\n        /* \"#utility.yul\":8062:8068   */\n      dup7\n        /* \"#utility.yul\":8018:8090   */\n      tag_108\n      jump\t// in\n    tag_217:\n        /* \"#utility.yul\":8100:8173   */\n      tag_218\n        /* \"#utility.yul\":8168:8171   */\n      0x80\n        /* \"#utility.yul\":8157:8166   */\n      dup4\n        /* \"#utility.yul\":8153:8172   */\n      add\n        /* \"#utility.yul\":8144:8150   */\n      dup6\n        /* \"#utility.yul\":8100:8173   */\n      tag_105\n      jump\t// in\n    tag_218:\n        /* \"#utility.yul\":8183:8256   */\n      tag_219\n        /* \"#utility.yul\":8251:8254   */\n      0xa0\n        /* \"#utility.yul\":8240:8249   */\n      dup4\n        /* \"#utility.yul\":8236:8255   */\n      add\n        /* \"#utility.yul\":8227:8233   */\n      dup5\n        /* \"#utility.yul\":8183:8256   */\n      tag_108\n      jump\t// in\n    tag_219:\n        /* \"#utility.yul\":7488:8263   */\n      swap8\n      swap7\n      pop\n      pop\n      pop\n      pop\n      pop\n      pop\n      pop\n      jump\t// out\n        /* \"#utility.yul\":8269:8932   */\n    tag_45:\n        /* \"#utility.yul\":8357:8363   */\n      0x00\n        /* \"#utility.yul\":8365:8371   */\n      dup1\n        /* \"#utility.yul\":8373:8379   */\n      0x00\n        /* \"#utility.yul\":8422:8424   */\n      0x60\n        /* \"#utility.yul\":8410:8419   */\n      dup5\n        /* \"#utility.yul\":8401:8408   */\n      dup7\n        /* \"#utility.yul\":8397:8420   */\n      sub\n        /* \"#utility.yul\":8393:8425   */\n      slt\n        /* \"#utility.yul\":8390:8509   */\n      iszero\n      tag_221\n      jumpi\n        /* \"#utility.yul\":8428:8507   */\n      tag_222\n      tag_96\n      jump\t// in\n    tag_222:\n        /* \"#utility.yul\":8390:8509   */\n    tag_221:\n        /* \"#utility.yul\":8548:8549   */\n      0x00\n        /* \"#utility.yul\":8573:8637   */\n      tag_223\n        /* \"#utility.yul\":8629:8636   */\n      dup7\n        /* \"#utility.yul\":8620:8626   */\n      dup3\n        /* \"#utility.yul\":8609:8618   */\n      dup8\n        /* \"#utility.yul\":8605:8627   */\n      add\n        /* \"#utility.yul\":8573:8637   */\n      tag_107\n      jump\t// in\n    tag_223:\n        /* \"#utility.yul\":8563:8637   */\n      swap4\n      pop\n        /* \"#utility.yul\":8519:8647   */\n      pop\n        /* \"#utility.yul\":8686:8688   */\n      0x20\n        /* \"#utility.yul\":8712:8776   */\n      tag_224\n        /* \"#utility.yul\":8768:8775   */\n      dup7\n        /* \"#utility.yul\":8759:8765   */\n      dup3\n        /* \"#utility.yul\":8748:8757   */\n      dup8\n        /* \"#utility.yul\":8744:8766   */\n      add\n        /* \"#utility.yul\":8712:8776   */\n      tag_107\n      jump\t// in\n    tag_224:\n        /* \"#utility.yul\":8702:8776   */\n      swap3\n      pop\n        /* \"#utility.yul\":8657:8786   */\n      pop\n        /* \"#utility.yul\":8825:8827   */\n      0x40\n        /* \"#utility.yul\":8851:8915   */\n      tag_225\n        /* \"#utility.yul\":8907:8914   */\n      dup7\n        /* \"#utility.yul\":8898:8904   */\n      dup3\n        /* \"#utility.yul\":8887:8896   */\n      dup8\n        /* \"#utility.yul\":8883:8905   */\n      add\n        /* \"#utility.yul\":8851:8915   */\n      tag_107\n      jump\t// in\n    tag_225:\n        /* \"#utility.yul\":8841:8915   */\n      swap2\n      pop\n        /* \"#utility.yul\":8796:8925   */\n      pop\n        /* \"#utility.yul\":8269:8932   */\n      swap3\n      pop\n      swap3\n      pop\n      swap3\n      jump\t// out\n        /* \"#utility.yul\":8938:9118   */\n    tag_119:\n        /* \"#utility.yul\":8986:9063   */\n      0x4e487b7100000000000000000000000000000000000000000000000000000000\n        /* \"#utility.yul\":8983:8984   */\n      0x00\n        /* \"#utility.yul\":8976:9064   */\n      mstore\n        /* \"#utility.yul\":9083:9087   */\n      0x11\n        /* \"#utility.yul\":9080:9081   */\n      0x04\n        /* \"#utility.yul\":9073:9088   */\n      mstore\n        /* \"#utility.yul\":9107:9111   */\n      0x24\n        /* \"#utility.yul\":9104:9105   */\n      0x00\n        /* \"#utility.yul\":9097:9112   */\n      revert\n        /* \"#utility.yul\":9124:9315   */\n    tag_50:\n        /* \"#utility.yul\":9164:9168   */\n      0x00\n        /* \"#utility.yul\":9184:9204   */\n      tag_228\n        /* \"#utility.yul\":9202:9203   */\n      dup3\n        /* \"#utility.yul\":9184:9204   */\n      tag_102\n      jump\t// in\n    tag_228:\n        /* \"#utility.yul\":9179:9204   */\n      swap2\n      pop\n        /* \"#utility.yul\":9218:9238   */\n      tag_229\n        /* \"#utility.yul\":9236:9237   */\n      dup4\n        /* \"#utility.yul\":9218:9238   */\n      tag_102\n      jump\t// in\n    tag_229:\n        /* \"#utility.yul\":9213:9238   */\n      swap3\n      pop\n        /* \"#utility.yul\":9257:9258   */\n      dup3\n        /* \"#utility.yul\":9254:9255   */\n      dup3\n        /* \"#utility.yul\":9251:9259   */\n      lt\n        /* \"#utility.yul\":9248:9282   */\n      iszero\n      tag_230\n      jumpi\n        /* \"#utility.yul\":9262:9280   */\n      tag_231\n      tag_119\n      jump\t// in\n    tag_231:\n        /* \"#utility.yul\":9248:9282   */\n    tag_230:\n        /* \"#utility.yul\":9307:9308   */\n      dup3\n        /* \"#utility.yul\":9304:9305   */\n      dup3\n        /* \"#utility.yul\":9300:9309   */\n      sub\n        /* \"#utility.yul\":9292:9309   */\n      swap1\n      pop\n        /* \"#utility.yul\":9124:9315   */\n      swap3\n      swap2\n      pop\n      pop\n      jump\t// out\n        /* \"#utility.yul\":9321:9653   */\n    tag_59:\n        /* \"#utility.yul\":9442:9446   */\n      0x00\n        /* \"#utility.yul\":9480:9482   */\n      0x40\n        /* \"#utility.yul\":9469:9478   */\n      dup3\n        /* \"#utility.yul\":9465:9483   */\n      add\n        /* \"#utility.yul\":9457:9483   */\n      swap1\n      pop\n        /* \"#utility.yul\":9493:9564   */\n      tag_233\n        /* \"#utility.yul\":9561:9562   */\n      0x00\n        /* \"#utility.yul\":9550:9559   */\n      dup4\n        /* \"#utility.yul\":9546:9563   */\n      add\n        /* \"#utility.yul\":9537:9543   */\n      dup6\n        /* \"#utility.yul\":9493:9564   */\n      tag_105\n      jump\t// in\n    tag_233:\n        /* \"#utility.yul\":9574:9646   */\n      tag_234\n        /* \"#utility.yul\":9642:9644   */\n      0x20\n        /* \"#utility.yul\":9631:9640   */\n      dup4\n        /* \"#utility.yul\":9627:9645   */\n      add\n        /* \"#utility.yul\":9618:9624   */\n      dup5\n        /* \"#utility.yul\":9574:9646   */\n      tag_108\n      jump\t// in\n    tag_234:\n        /* \"#utility.yul\":9321:9653   */\n      swap4\n      swap3\n      pop\n      pop\n      pop\n      jump\t// out\n        /* \"#utility.yul\":9659:9757   */\n    tag_120:\n        /* \"#utility.yul\":9710:9716   */\n      0x00\n        /* \"#utility.yul\":9744:9749   */\n      dup2\n        /* \"#utility.yul\":9738:9750   */\n      mload\n        /* \"#utility.yul\":9728:9750   */\n      swap1\n      pop\n        /* \"#utility.yul\":9659:9757   */\n      swap2\n      swap1\n      pop\n      jump\t// out\n        /* \"#utility.yul\":9763:9910   */\n    tag_121:\n        /* \"#utility.yul\":9864:9875   */\n      0x00\n        /* \"#utility.yul\":9901:9904   */\n      dup2\n        /* \"#utility.yul\":9886:9904   */\n      swap1\n      pop\n        /* \"#utility.yul\":9763:9910   */\n      swap3\n      swap2\n      pop\n      pop\n      jump\t// out\n        /* \"#utility.yul\":9916:10223   */\n    tag_122:\n        /* \"#utility.yul\":9984:9985   */\n      0x00\n        /* \"#utility.yul\":9994:10107   */\n    tag_238:\n        /* \"#utility.yul\":10008:10014   */\n      dup4\n        /* \"#utility.yul\":10005:10006   */\n      dup2\n        /* \"#utility.yul\":10002:10015   */\n      lt\n        /* \"#utility.yul\":9994:10107   */\n      iszero\n      tag_240\n      jumpi\n        /* \"#utility.yul\":10093:10094   */\n      dup1\n        /* \"#utility.yul\":10088:10091   */\n      dup3\n        /* \"#utility.yul\":10084:10095   */\n      add\n        /* \"#utility.yul\":10078:10096   */\n      mload\n        /* \"#utility.yul\":10074:10075   */\n      dup2\n        /* \"#utility.yul\":10069:10072   */\n      dup5\n        /* \"#utility.yul\":10065:10076   */\n      add\n        /* \"#utility.yul\":10058:10097   */\n      mstore\n        /* \"#utility.yul\":10030:10032   */\n      0x20\n        /* \"#utility.yul\":10027:10028   */\n      dup2\n        /* \"#utility.yul\":10023:10033   */\n      add\n        /* \"#utility.yul\":10018:10033   */\n      swap1\n      pop\n        /* \"#utility.yul\":9994:10107   */\n      jump(tag_238)\n    tag_240:\n        /* \"#utility.yul\":10125:10131   */\n      dup4\n        /* \"#utility.yul\":10122:10123   */\n      dup2\n        /* \"#utility.yul\":10119:10132   */\n      gt\n        /* \"#utility.yul\":10116:10217   */\n      iszero\n      tag_241\n      jumpi\n        /* \"#utility.yul\":10205:10206   */\n      0x00\n        /* \"#utility.yul\":10196:10202   */\n      dup5\n        /* \"#utility.yul\":10191:10194   */\n      dup5\n        /* \"#utility.yul\":10187:10203   */\n      add\n        /* \"#utility.yul\":10180:10207   */\n      mstore\n        /* \"#utility.yul\":10116:10217   */\n    tag_241:\n        /* \"#utility.yul\":9965:10223   */\n      pop\n        /* \"#utility.yul\":9916:10223   */\n      pop\n      pop\n      pop\n      jump\t// out\n        /* \"#utility.yul\":10229:10602   */\n    tag_123:\n        /* \"#utility.yul\":10333:10336   */\n      0x00\n        /* \"#utility.yul\":10361:10399   */\n      tag_243\n        /* \"#utility.yul\":10393:10398   */\n      dup3\n        /* \"#utility.yul\":10361:10399   */\n      tag_120\n      jump\t// in\n    tag_243:\n        /* \"#utility.yul\":10415:10503   */\n      tag_244\n        /* \"#utility.yul\":10496:10502   */\n      dup2\n        /* \"#utility.yul\":10491:10494   */\n      dup6\n        /* \"#utility.yul\":10415:10503   */\n      tag_121\n      jump\t// in\n    tag_244:\n        /* \"#utility.yul\":10408:10503   */\n      swap4\n      pop\n        /* \"#utility.yul\":10512:10564   */\n      tag_245\n        /* \"#utility.yul\":10557:10563   */\n      dup2\n        /* \"#utility.yul\":10552:10555   */\n      dup6\n        /* \"#utility.yul\":10545:10549   */\n      0x20\n        /* \"#utility.yul\":10538:10543   */\n      dup7\n        /* \"#utility.yul\":10534:10550   */\n      add\n        /* \"#utility.yul\":10512:10564   */\n      tag_122\n      jump\t// in\n    tag_245:\n        /* \"#utility.yul\":10589:10595   */\n      dup1\n        /* \"#utility.yul\":10584:10587   */\n      dup5\n        /* \"#utility.yul\":10580:10596   */\n      add\n        /* \"#utility.yul\":10573:10596   */\n      swap2\n      pop\n        /* \"#utility.yul\":10337:10602   */\n      pop\n        /* \"#utility.yul\":10229:10602   */\n      swap3\n      swap2\n      pop\n      pop\n      jump\t// out\n        /* \"#utility.yul\":10608:10879   */\n    tag_61:\n        /* \"#utility.yul\":10738:10741   */\n      0x00\n        /* \"#utility.yul\":10760:10853   */\n      tag_247\n        /* \"#utility.yul\":10849:10852   */\n      dup3\n        /* \"#utility.yul\":10840:10846   */\n      dup5\n        /* \"#utility.yul\":10760:10853   */\n      tag_123\n      jump\t// in\n    tag_247:\n        /* \"#utility.yul\":10753:10853   */\n      swap2\n      pop\n        /* \"#utility.yul\":10870:10873   */\n      dup2\n        /* \"#utility.yul\":10863:10873   */\n      swap1\n      pop\n        /* \"#utility.yul\":10608:10879   */\n      swap3\n      swap2\n      pop\n      pop\n      jump\t// out\n        /* \"#utility.yul\":10885:11115   */\n    tag_124:\n        /* \"#utility.yul\":11025:11059   */\n      0x5472616e7366657248656c7065723a3a73616665417070726f76653a20617070\n        /* \"#utility.yul\":11021:11022   */\n      0x00\n        /* \"#utility.yul\":11013:11019   */\n      dup3\n        /* \"#utility.yul\":11009:11023   */\n      add\n        /* \"#utility.yul\":11002:11060   */\n      mstore\n        /* \"#utility.yul\":11094:11107   */\n      0x726f7665206661696c6564000000000000000000000000000000000000000000\n        /* \"#utility.yul\":11089:11091   */\n      0x20\n        /* \"#utility.yul\":11081:11087   */\n      dup3\n        /* \"#utility.yul\":11077:11092   */\n      add\n        /* \"#utility.yul\":11070:11108   */\n      mstore\n        /* \"#utility.yul\":10885:11115   */\n      pop\n      jump\t// out\n        /* \"#utility.yul\":11121:11487   */\n    tag_125:\n        /* \"#utility.yul\":11263:11266   */\n      0x00\n        /* \"#utility.yul\":11284:11351   */\n      tag_250\n        /* \"#utility.yul\":11348:11350   */\n      0x2b\n        /* \"#utility.yul\":11343:11346   */\n      dup4\n        /* \"#utility.yul\":11284:11351   */\n      tag_112\n      jump\t// in\n    tag_250:\n        /* \"#utility.yul\":11277:11351   */\n      swap2\n      pop\n        /* \"#utility.yul\":11360:11453   */\n      tag_251\n        /* \"#utility.yul\":11449:11452   */\n      dup3\n        /* \"#utility.yul\":11360:11453   */\n      tag_124\n      jump\t// in\n    tag_251:\n        /* \"#utility.yul\":11478:11480   */\n      0x40\n        /* \"#utility.yul\":11473:11476   */\n      dup3\n        /* \"#utility.yul\":11469:11481   */\n      add\n        /* \"#utility.yul\":11462:11481   */\n      swap1\n      pop\n        /* \"#utility.yul\":11121:11487   */\n      swap2\n      swap1\n      pop\n      jump\t// out\n        /* \"#utility.yul\":11493:11912   */\n    tag_70:\n        /* \"#utility.yul\":11659:11663   */\n      0x00\n        /* \"#utility.yul\":11697:11699   */\n      0x20\n        /* \"#utility.yul\":11686:11695   */\n      dup3\n        /* \"#utility.yul\":11682:11700   */\n      add\n        /* \"#utility.yul\":11674:11700   */\n      swap1\n      pop\n        /* \"#utility.yul\":11746:11755   */\n      dup2\n        /* \"#utility.yul\":11740:11744   */\n      dup2\n        /* \"#utility.yul\":11736:11756   */\n      sub\n        /* \"#utility.yul\":11732:11733   */\n      0x00\n        /* \"#utility.yul\":11721:11730   */\n      dup4\n        /* \"#utility.yul\":11717:11734   */\n      add\n        /* \"#utility.yul\":11710:11757   */\n      mstore\n        /* \"#utility.yul\":11774:11905   */\n      tag_253\n        /* \"#utility.yul\":11900:11904   */\n      dup2\n        /* \"#utility.yul\":11774:11905   */\n      tag_125\n      jump\t// in\n    tag_253:\n        /* \"#utility.yul\":11766:11905   */\n      swap1\n      pop\n        /* \"#utility.yul\":11493:11912   */\n      swap2\n      swap1\n      pop\n      jump\t// out\n        /* \"#utility.yul\":11918:12150   */\n    tag_126:\n        /* \"#utility.yul\":12058:12092   */\n      0x5472616e7366657248656c7065723a3a736166655472616e736665723a207472\n        /* \"#utility.yul\":12054:12055   */\n      0x00\n        /* \"#utility.yul\":12046:12052   */\n      dup3\n        /* \"#utility.yul\":12042:12056   */\n      add\n        /* \"#utility.yul\":12035:12093   */\n      mstore\n        /* \"#utility.yul\":12127:12142   */\n      0x616e73666572206661696c656400000000000000000000000000000000000000\n        /* \"#utility.yul\":12122:12124   */\n      0x20\n        /* \"#utility.yul\":12114:12120   */\n      dup3\n        /* \"#utility.yul\":12110:12125   */\n      add\n        /* \"#utility.yul\":12103:12143   */\n      mstore\n        /* \"#utility.yul\":11918:12150   */\n      pop\n      jump\t// out\n        /* \"#utility.yul\":12156:12522   */\n    tag_127:\n        /* \"#utility.yul\":12298:12301   */\n      0x00\n        /* \"#utility.yul\":12319:12386   */\n      tag_256\n        /* \"#utility.yul\":12383:12385   */\n      0x2d\n        /* \"#utility.yul\":12378:12381   */\n      dup4\n        /* \"#utility.yul\":12319:12386   */\n      tag_112\n      jump\t// in\n    tag_256:\n        /* \"#utility.yul\":12312:12386   */\n      swap2\n      pop\n        /* \"#utility.yul\":12395:12488   */\n      tag_257\n        /* \"#utility.yul\":12484:12487   */\n      dup3\n        /* \"#utility.yul\":12395:12488   */\n      tag_126\n      jump\t// in\n    tag_257:\n        /* \"#utility.yul\":12513:12515   */\n      0x40\n        /* \"#utility.yul\":12508:12511   */\n      dup3\n        /* \"#utility.yul\":12504:12516   */\n      add\n        /* \"#utility.yul\":12497:12516   */\n      swap1\n      pop\n        /* \"#utility.yul\":12156:12522   */\n      swap2\n      swap1\n      pop\n      jump\t// out\n        /* \"#utility.yul\":12528:12947   */\n    tag_82:\n        /* \"#utility.yul\":12694:12698   */\n      0x00\n        /* \"#utility.yul\":12732:12734   */\n      0x20\n        /* \"#utility.yul\":12721:12730   */\n      dup3\n        /* \"#utility.yul\":12717:12735   */\n      add\n        /* \"#utility.yul\":12709:12735   */\n      swap1\n      pop\n        /* \"#utility.yul\":12781:12790   */\n      dup2\n        /* \"#utility.yul\":12775:12779   */\n      dup2\n        /* \"#utility.yul\":12771:12791   */\n      sub\n        /* \"#utility.yul\":12767:12768   */\n      0x00\n        /* \"#utility.yul\":12756:12765   */\n      dup4\n        /* \"#utility.yul\":12752:12769   */\n      add\n        /* \"#utility.yul\":12745:12792   */\n      mstore\n        /* \"#utility.yul\":12809:12940   */\n      tag_259\n        /* \"#utility.yul\":12935:12939   */\n      dup2\n        /* \"#utility.yul\":12809:12940   */\n      tag_127\n      jump\t// in\n    tag_259:\n        /* \"#utility.yul\":12801:12940   */\n      swap1\n      pop\n        /* \"#utility.yul\":12528:12947   */\n      swap2\n      swap1\n      pop\n      jump\t// out\n        /* \"#utility.yul\":12953:13133   */\n    tag_86:\n        /* \"#utility.yul\":13001:13078   */\n      0x4e487b7100000000000000000000000000000000000000000000000000000000\n        /* \"#utility.yul\":12998:12999   */\n      0x00\n        /* \"#utility.yul\":12991:13079   */\n      mstore\n        /* \"#utility.yul\":13098:13102   */\n      0x41\n        /* \"#utility.yul\":13095:13096   */\n      0x04\n        /* \"#utility.yul\":13088:13103   */\n      mstore\n        /* \"#utility.yul\":13122:13126   */\n      0x24\n        /* \"#utility.yul\":13119:13120   */\n      0x00\n        /* \"#utility.yul\":13112:13127   */\n      revert\n        /* \"#utility.yul\":13139:13378   */\n    tag_128:\n        /* \"#utility.yul\":13279:13313   */\n      0x5472616e7366657248656c7065723a3a736166655472616e736665724554483a\n        /* \"#utility.yul\":13275:13276   */\n      0x00\n        /* \"#utility.yul\":13267:13273   */\n      dup3\n        /* \"#utility.yul\":13263:13277   */\n      add\n        /* \"#utility.yul\":13256:13314   */\n      mstore\n        /* \"#utility.yul\":13348:13370   */\n      0x20455448207472616e73666572206661696c6564000000000000000000000000\n        /* \"#utility.yul\":13343:13345   */\n      0x20\n        /* \"#utility.yul\":13335:13341   */\n      dup3\n        /* \"#utility.yul\":13331:13346   */\n      add\n        /* \"#utility.yul\":13324:13371   */\n      mstore\n        /* \"#utility.yul\":13139:13378   */\n      pop\n      jump\t// out\n        /* \"#utility.yul\":13384:13750   */\n    tag_129:\n        /* \"#utility.yul\":13526:13529   */\n      0x00\n        /* \"#utility.yul\":13547:13614   */\n      tag_263\n        /* \"#utility.yul\":13611:13613   */\n      0x34\n        /* \"#utility.yul\":13606:13609   */\n      dup4\n        /* \"#utility.yul\":13547:13614   */\n      tag_112\n      jump\t// in\n    tag_263:\n        /* \"#utility.yul\":13540:13614   */\n      swap2\n      pop\n        /* \"#utility.yul\":13623:13716   */\n      tag_264\n        /* \"#utility.yul\":13712:13715   */\n      dup3\n        /* \"#utility.yul\":13623:13716   */\n      tag_128\n      jump\t// in\n    tag_264:\n        /* \"#utility.yul\":13741:13743   */\n      0x40\n        /* \"#utility.yul\":13736:13739   */\n      dup3\n        /* \"#utility.yul\":13732:13744   */\n      add\n        /* \"#utility.yul\":13725:13744   */\n      swap1\n      pop\n        /* \"#utility.yul\":13384:13750   */\n      swap2\n      swap1\n      pop\n      jump\t// out\n        /* \"#utility.yul\":13756:14175   */\n    tag_94:\n        /* \"#utility.yul\":13922:13926   */\n      0x00\n        /* \"#utility.yul\":13960:13962   */\n      0x20\n        /* \"#utility.yul\":13949:13958   */\n      dup3\n        /* \"#utility.yul\":13945:13963   */\n      add\n        /* \"#utility.yul\":13937:13963   */\n      swap1\n      pop\n        /* \"#utility.yul\":14009:14018   */\n      dup2\n        /* \"#utility.yul\":14003:14007   */\n      dup2\n        /* \"#utility.yul\":13999:14019   */\n      sub\n        /* \"#utility.yul\":13995:13996   */\n      0x00\n        /* \"#utility.yul\":13984:13993   */\n      dup4\n        /* \"#utility.yul\":13980:13997   */\n      add\n        /* \"#utility.yul\":13973:14020   */\n      mstore\n        /* \"#utility.yul\":14037:14168   */\n      tag_266\n        /* \"#utility.yul\":14163:14167   */\n      dup2\n        /* \"#utility.yul\":14037:14168   */\n      tag_129\n      jump\t// in\n    tag_266:\n        /* \"#utility.yul\":14029:14168   */\n      swap1\n      pop\n        /* \"#utility.yul\":13756:14175   */\n      swap2\n      swap1\n      pop\n      jump\t// out\n\n    auxdata: 0xa2646970667358221220932ddd84e9e6fb01ed06c8570bc3d16a4443cf6265aebc1d65cca0a959e6cb4664736f6c634300080f0033\n}\n",
				"bytecode": {
					"linkReferences": {},
					"object": "60c06040523480156200001157600080fd5b50604051620010c7380380620010c7833981810160405281019062000037919062000111565b8173ffffffffffffffffffffffffffffffffffffffff1660808173ffffffffffffffffffffffffffffffffffffffff16815250508073ffffffffffffffffffffffffffffffffffffffff1660a08173ffffffffffffffffffffffffffffffffffffffff1681525050505062000158565b600080fd5b600073ffffffffffffffffffffffffffffffffffffffff82169050919050565b6000620000d982620000ac565b9050919050565b620000eb81620000cc565b8114620000f757600080fd5b50565b6000815190506200010b81620000e0565b92915050565b600080604083850312156200012b576200012a620000a7565b5b60006200013b85828601620000fa565b92505060206200014e85828601620000fa565b9150509250929050565b60805160a051610f3c6200018b600039600081816102e10152818161030b01526103c301526000605b0152610f3c6000f3fe6080604052600436106100225760003560e01c8063b7df1d251461002e57610029565b3661002957005b600080fd5b34801561003a57600080fd5b5061005560048036038101906100509190610835565b610057565b005b60007f000000000000000000000000000000000000000000000000000000000000000073ffffffffffffffffffffffffffffffffffffffff166306f2bf62876040518263ffffffff1660e01b81526004016100b291906108bf565b602060405180830381865afa1580156100cf573d6000803e3d6000fd5b505050506040513d601f19601f820116820180604052508101906100f391906108ef565b905060008173ffffffffffffffffffffffffffffffffffffffff166370a08231336040518263ffffffff1660e01b815260040161013091906108bf565b602060405180830381865afa15801561014d573d6000803e3d6000fd5b505050506040513d601f19601f820116820180604052508101906101719190610931565b90508173ffffffffffffffffffffffffffffffffffffffff166323b872dd3330846040518463ffffffff1660e01b81526004016101b09392919061096d565b6020604051808303816000875af11580156101cf573d6000803e3d6000fd5b505050506040513d601f19601f820116820180604052508101906101f391906109dc565b610232576040517f08c379a000000000000000000000000000000000000000000000000000000000815260040161022990610a66565b60405180910390fd5b6000808373ffffffffffffffffffffffffffffffffffffffff1663f88bf15a846001807fffffffffffffffffffffffffffffffffffffffffffffffffffffffffffffffff6040518563ffffffff1660e01b81526004016102959493929190610acb565b60408051808303816000875af11580156102b3573d6000803e3d6000fd5b505050506040513d601f19601f820116820180604052508101906102d79190610b10565b91509150610306897f000000000000000000000000000000000000000000000000000000000000000083610430565b6000807f000000000000000000000000000000000000000000000000000000000000000073ffffffffffffffffffffffffffffffffffffffff1663f305d719858d868e8e8e8e6040518863ffffffff1660e01b815260040161036d96959493929190610b50565b60606040518083038185885af115801561038b573d6000803e3d6000fd5b50505050506040513d601f19601f820116820180604052508101906103b09190610bb1565b509150915081831115610404576103e98b7f00000000000000000000000000000000000000000000000000000000000000006000610430565b6103ff8b3384866103fa9190610c33565b610566565b610423565b808411156104225761042133828661041c9190610c33565b61069c565b5b5b5050505050505050505050565b6000808473ffffffffffffffffffffffffffffffffffffffff1663095ea7b38585604051602401610462929190610c67565b6040516020818303038152906040529060e01b6020820180517bffffffffffffffffffffffffffffffffffffffffffffffffffffffff83818316178352505050506040516104b09190610d0a565b6000604051808303816000865af19150503d80600081146104ed576040519150601f19603f3d011682016040523d82523d6000602084013e6104f2565b606091505b5091509150818015610520575060008151148061051f57508080602001905181019061051e91906109dc565b5b5b61055f576040517f08c379a000000000000000000000000000000000000000000000000000000000815260040161055690610d93565b60405180910390fd5b5050505050565b6000808473ffffffffffffffffffffffffffffffffffffffff1663a9059cbb8585604051602401610598929190610c67565b6040516020818303038152906040529060e01b6020820180517bffffffffffffffffffffffffffffffffffffffffffffffffffffffff83818316178352505050506040516105e69190610d0a565b6000604051808303816000865af19150503d8060008114610623576040519150601f19603f3d011682016040523d82523d6000602084013e610628565b606091505b5091509150818015610656575060008151148061065557508080602001905181019061065491906109dc565b5b5b610695576040517f08c379a000000000000000000000000000000000000000000000000000000000815260040161068c90610e25565b60405180910390fd5b5050505050565b60008273ffffffffffffffffffffffffffffffffffffffff1682600067ffffffffffffffff8111156106d1576106d0610e45565b5b6040519080825280601f01601f1916602001820160405280156107035781602001600182028036833780820191505090505b506040516107119190610d0a565b60006040518083038185875af1925050503d806000811461074e576040519150601f19603f3d011682016040523d82523d6000602084013e610753565b606091505b5050905080610797576040517f08c379a000000000000000000000000000000000000000000000000000000000815260040161078e90610ee6565b60405180910390fd5b505050565b600080fd5b600073ffffffffffffffffffffffffffffffffffffffff82169050919050565b60006107cc826107a1565b9050919050565b6107dc816107c1565b81146107e757600080fd5b50565b6000813590506107f9816107d3565b92915050565b6000819050919050565b610812816107ff565b811461081d57600080fd5b50565b60008135905061082f81610809565b92915050565b600080600080600060a086880312156108515761085061079c565b5b600061085f888289016107ea565b955050602061087088828901610820565b945050604061088188828901610820565b9350506060610892888289016107ea565b92505060806108a388828901610820565b9150509295509295909350565b6108b9816107c1565b82525050565b60006020820190506108d460008301846108b0565b92915050565b6000815190506108e9816107d3565b92915050565b6000602082840312156109055761090461079c565b5b6000610913848285016108da565b91505092915050565b60008151905061092b81610809565b92915050565b6000602082840312156109475761094661079c565b5b60006109558482850161091c565b91505092915050565b610967816107ff565b82525050565b600060608201905061098260008301866108b0565b61098f60208301856108b0565b61099c604083018461095e565b949350505050565b60008115159050919050565b6109b9816109a4565b81146109c457600080fd5b50565b6000815190506109d6816109b0565b92915050565b6000602082840312156109f2576109f161079c565b5b6000610a00848285016109c7565b91505092915050565b600082825260208201905092915050565b7f5452414e534645525f46524f4d5f4641494c4544000000000000000000000000600082015250565b6000610a50601483610a09565b9150610a5b82610a1a565b602082019050919050565b60006020820190508181036000830152610a7f81610a43565b9050919050565b6000819050919050565b6000819050919050565b6000610ab5610ab0610aab84610a86565b610a90565b6107ff565b9050919050565b610ac581610a9a565b82525050565b6000608082019050610ae0600083018761095e565b610aed6020830186610abc565b610afa6040830185610abc565b610b07606083018461095e565b95945050505050565b60008060408385031215610b2757610b2661079c565b5b6000610b358582860161091c565b9250506020610b468582860161091c565b9150509250929050565b600060c082019050610b6560008301896108b0565b610b72602083018861095e565b610b7f604083018761095e565b610b8c606083018661095e565b610b9960808301856108b0565b610ba660a083018461095e565b979650505050505050565b600080600060608486031215610bca57610bc961079c565b5b6000610bd88682870161091c565b9350506020610be98682870161091c565b9250506040610bfa8682870161091c565b9150509250925092565b7f4e487b7100000000000000000000000000000000000000000000000000000000600052601160045260246000fd5b6000610c3e826107ff565b9150610c49836107ff565b925082821015610c5c57610c5b610c04565b5b828203905092915050565b6000604082019050610c7c60008301856108b0565b610c89602083018461095e565b9392505050565b600081519050919050565b600081905092915050565b60005b83811015610cc4578082015181840152602081019050610ca9565b83811115610cd3576000848401525b50505050565b6000610ce482610c90565b610cee8185610c9b565b9350610cfe818560208601610ca6565b80840191505092915050565b6000610d168284610cd9565b915081905092915050565b7f5472616e7366657248656c7065723a3a73616665417070726f76653a2061707060008201527f726f7665206661696c6564000000000000000000000000000000000000000000602082015250565b6000610d7d602b83610a09565b9150610d8882610d21565b604082019050919050565b60006020820190508181036000830152610dac81610d70565b9050919050565b7f5472616e7366657248656c7065723a3a736166655472616e736665723a20747260008201527f616e73666572206661696c656400000000000000000000000000000000000000602082015250565b6000610e0f602d83610a09565b9150610e1a82610db3565b604082019050919050565b60006020820190508181036000830152610e3e81610e02565b9050919050565b7f4e487b7100000000000000000000000000000000000000000000000000000000600052604160045260246000fd5b7f5472616e7366657248656c7065723a3a736166655472616e736665724554483a60008201527f20455448207472616e73666572206661696c6564000000000000000000000000602082015250565b6000610ed0603483610a09565b9150610edb82610e74565b604082019050919050565b60006020820190508181036000830152610eff81610ec3565b905091905056fea2646970667358221220932ddd84e9e6fb01ed06c8570bc3d16a4443cf6265aebc1d65cca0a959e6cb4664736f6c634300080f0033",
					"opcodes": "PUSH1 0xC0 PUSH1 0x40 MSTORE CALLVALUE DUP1 ISZERO PUSH3 0x11 JUMPI PUSH1 0x0 DUP1 REVERT JUMPDEST POP PUSH1 0x40 MLOAD PUSH3 0x10C7 CODESIZE SUB DUP1 PUSH3 0x10C7 DUP4 CODECOPY DUP2 DUP2 ADD PUSH1 0x40 MSTORE DUP2 ADD SWAP1 PUSH3 0x37 SWAP2 SWAP1 PUSH3 0x111 JUMP JUMPDEST DUP2 PUSH20 0xFFFFFFFFFFFFFFFFFFFFFFFFFFFFFFFFFFFFFFFF AND PUSH1 0x80 DUP2 PUSH20 0xFFFFFFFFFFFFFFFFFFFFFFFFFFFFFFFFFFFFFFFF AND DUP2 MSTORE POP POP DUP1 PUSH20 0xFFFFFFFFFFFFFFFFFFFFFFFFFFFFFFFFFFFFFFFF AND PUSH1 0xA0 DUP2 PUSH20 0xFFFFFFFFFFFFFFFFFFFFFFFFFFFFFFFFFFFFFFFF AND DUP2 MSTORE POP POP POP POP PUSH3 0x158 JUMP JUMPDEST PUSH1 0x0 DUP1 REVERT JUMPDEST PUSH1 0x0 PUSH20 0xFFFFFFFFFFFFFFFFFFFFFFFFFFFFFFFFFFFFFFFF DUP3 AND SWAP1 POP SWAP2 SWAP1 POP JUMP JUMPDEST PUSH1 0x0 PUSH3 0xD9 DUP3 PUSH3 0xAC JUMP JUMPDEST SWAP1 POP SWAP2 SWAP1 POP JUMP JUMPDEST PUSH3 0xEB DUP2 PUSH3 0xCC JUMP JUMPDEST DUP2 EQ PUSH3 0xF7 JUMPI PUSH1 0x0 DUP1 REVERT JUMPDEST POP JUMP JUMPDEST PUSH1 0x0 DUP2 MLOAD SWAP1 POP PUSH3 0x10B DUP2 PUSH3 0xE0 JUMP JUMPDEST SWAP3 SWAP2 POP POP JUMP JUMPDEST PUSH1 0x0 DUP1 PUSH1 0x40 DUP4 DUP6 SUB SLT ISZERO PUSH3 0x12B JUMPI PUSH3 0x12A PUSH3 0xA7 JUMP JUMPDEST JUMPDEST PUSH1 0x0 PUSH3 0x13B DUP6 DUP3 DUP7 ADD PUSH3 0xFA JUMP JUMPDEST SWAP3 POP POP PUSH1 0x20 PUSH3 0x14E DUP6 DUP3 DUP7 ADD PUSH3 0xFA JUMP JUMPDEST SWAP2 POP POP SWAP3 POP SWAP3 SWAP1 POP JUMP JUMPDEST PUSH1 0x80 MLOAD PUSH1 0xA0 MLOAD PUSH2 0xF3C PUSH3 0x18B PUSH1 0x0 CODECOPY PUSH1 0x0 DUP2 DUP2 PUSH2 0x2E1 ADD MSTORE DUP2 DUP2 PUSH2 0x30B ADD MSTORE PUSH2 0x3C3 ADD MSTORE PUSH1 0x0 PUSH1 0x5B ADD MSTORE PUSH2 0xF3C PUSH1 0x0 RETURN INVALID PUSH1 0x80 PUSH1 0x40 MSTORE PUSH1 0x4 CALLDATASIZE LT PUSH2 0x22 JUMPI PUSH1 0x0 CALLDATALOAD PUSH1 0xE0 SHR DUP1 PUSH4 0xB7DF1D25 EQ PUSH2 0x2E JUMPI PUSH2 0x29 JUMP JUMPDEST CALLDATASIZE PUSH2 0x29 JUMPI STOP JUMPDEST PUSH1 0x0 DUP1 REVERT JUMPDEST CALLVALUE DUP1 ISZERO PUSH2 0x3A JUMPI PUSH1 0x0 DUP1 REVERT JUMPDEST POP PUSH2 0x55 PUSH1 0x4 DUP1 CALLDATASIZE SUB DUP2 ADD SWAP1 PUSH2 0x50 SWAP2 SWAP1 PUSH2 0x835 JUMP JUMPDEST PUSH2 0x57 JUMP JUMPDEST STOP JUMPDEST PUSH1 0x0 PUSH32 0x0 PUSH20 0xFFFFFFFFFFFFFFFFFFFFFFFFFFFFFFFFFFFFFFFF AND PUSH4 0x6F2BF62 DUP8 PUSH1 0x40 MLOAD DUP3 PUSH4 0xFFFFFFFF AND PUSH1 0xE0 SHL DUP2 MSTORE PUSH1 0x4 ADD PUSH2 0xB2 SWAP2 SWAP1 PUSH2 0x8BF JUMP JUMPDEST PUSH1 0x20 PUSH1 0x40 MLOAD DUP1 DUP4 SUB DUP2 DUP7 GAS STATICCALL ISZERO DUP1 ISZERO PUSH2 0xCF JUMPI RETURNDATASIZE PUSH1 0x0 DUP1 RETURNDATACOPY RETURNDATASIZE PUSH1 0x0 REVERT JUMPDEST POP POP POP POP PUSH1 0x40 MLOAD RETURNDATASIZE PUSH1 0x1F NOT PUSH1 0x1F DUP3 ADD AND DUP3 ADD DUP1 PUSH1 0x40 MSTORE POP DUP2 ADD SWAP1 PUSH2 0xF3 SWAP2 SWAP1 PUSH2 0x8EF JUMP JUMPDEST SWAP1 POP PUSH1 0x0 DUP2 PUSH20 0xFFFFFFFFFFFFFFFFFFFFFFFFFFFFFFFFFFFFFFFF AND PUSH4 0x70A08231 CALLER PUSH1 0x40 MLOAD DUP3 PUSH4 0xFFFFFFFF AND PUSH1 0xE0 SHL DUP2 MSTORE PUSH1 0x4 ADD PUSH2 0x130 SWAP2 SWAP1 PUSH2 0x8BF JUMP JUMPDEST PUSH1 0x20 PUSH1 0x40 MLOAD DUP1 DUP4 SUB DUP2 DUP7 GAS STATICCALL ISZERO DUP1 ISZERO PUSH2 0x14D JUMPI RETURNDATASIZE PUSH1 0x0 DUP1 RETURNDATACOPY RETURNDATASIZE PUSH1 0x0 REVERT JUMPDEST POP POP POP POP PUSH1 0x40 MLOAD RETURNDATASIZE PUSH1 0x1F NOT PUSH1 0x1F DUP3 ADD AND DUP3 ADD DUP1 PUSH1 0x40 MSTORE POP DUP2 ADD SWAP1 PUSH2 0x171 SWAP2 SWAP1 PUSH2 0x931 JUMP JUMPDEST SWAP1 POP DUP2 PUSH20 0xFFFFFFFFFFFFFFFFFFFFFFFFFFFFFFFFFFFFFFFF AND PUSH4 0x23B872DD CALLER ADDRESS DUP5 PUSH1 0x40 MLOAD DUP5 PUSH4 0xFFFFFFFF AND PUSH1 0xE0 SHL DUP2 MSTORE PUSH1 0x4 ADD PUSH2 0x1B0 SWAP4 SWAP3 SWAP2 SWAP1 PUSH2 0x96D JUMP JUMPDEST PUSH1 0x20 PUSH1 0x40 MLOAD DUP1 DUP4 SUB DUP2 PUSH1 0x0 DUP8 GAS CALL ISZERO DUP1 ISZERO PUSH2 0x1CF JUMPI RETURNDATASIZE PUSH1 0x0 DUP1 RETURNDATACOPY RETURNDATASIZE PUSH1 0x0 REVERT JUMPDEST POP POP POP POP PUSH1 0x40 MLOAD RETURNDATASIZE PUSH1 0x1F NOT PUSH1 0x1F DUP3 ADD AND DUP3 ADD DUP1 PUSH1 0x40 MSTORE POP DUP2 ADD SWAP1 PUSH2 0x1F3 SWAP2 SWAP1 PUSH2 0x9DC JUMP JUMPDEST PUSH2 0x232 JUMPI PUSH1 0x40 MLOAD PUSH32 0x8C379A000000000000000000000000000000000000000000000000000000000 DUP2 MSTORE PUSH1 0x4 ADD PUSH2 0x229 SWAP1 PUSH2 0xA66 JUMP JUMPDEST PUSH1 0x40 MLOAD DUP1 SWAP2 SUB SWAP1 REVERT JUMPDEST PUSH1 0x0 DUP1 DUP4 PUSH20 0xFFFFFFFFFFFFFFFFFFFFFFFFFFFFFFFFFFFFFFFF AND PUSH4 0xF88BF15A DUP5 PUSH1 0x1 DUP1 PUSH32 0xFFFFFFFFFFFFFFFFFFFFFFFFFFFFFFFFFFFFFFFFFFFFFFFFFFFFFFFFFFFFFFFF PUSH1 0x40 MLOAD DUP6 PUSH4 0xFFFFFFFF AND PUSH1 0xE0 SHL DUP2 MSTORE PUSH1 0x4 ADD PUSH2 0x295 SWAP5 SWAP4 SWAP3 SWAP2 SWAP1 PUSH2 0xACB JUMP JUMPDEST PUSH1 0x40 DUP1 MLOAD DUP1 DUP4 SUB DUP2 PUSH1 0x0 DUP8 GAS CALL ISZERO DUP1 ISZERO PUSH2 0x2B3 JUMPI RETURNDATASIZE PUSH1 0x0 DUP1 RETURNDATACOPY RETURNDATASIZE PUSH1 0x0 REVERT JUMPDEST POP POP POP POP PUSH1 0x40 MLOAD RETURNDATASIZE PUSH1 0x1F NOT PUSH1 0x1F DUP3 ADD AND DUP3 ADD DUP1 PUSH1 0x40 MSTORE POP DUP2 ADD SWAP1 PUSH2 0x2D7 SWAP2 SWAP1 PUSH2 0xB10 JUMP JUMPDEST SWAP2 POP SWAP2 POP PUSH2 0x306 DUP10 PUSH32 0x0 DUP4 PUSH2 0x430 JUMP JUMPDEST PUSH1 0x0 DUP1 PUSH32 0x0 PUSH20 0xFFFFFFFFFFFFFFFFFFFFFFFFFFFFFFFFFFFFFFFF AND PUSH4 0xF305D719 DUP6 DUP14 DUP7 DUP15 DUP15 DUP15 DUP15 PUSH1 0x40 MLOAD DUP9 PUSH4 0xFFFFFFFF AND PUSH1 0xE0 SHL DUP2 MSTORE PUSH1 0x4 ADD PUSH2 0x36D SWAP7 SWAP6 SWAP5 SWAP4 SWAP3 SWAP2 SWAP1 PUSH2 0xB50 JUMP JUMPDEST PUSH1 0x60 PUSH1 0x40 MLOAD DUP1 DUP4 SUB DUP2 DUP6 DUP9 GAS CALL ISZERO DUP1 ISZERO PUSH2 0x38B JUMPI RETURNDATASIZE PUSH1 0x0 DUP1 RETURNDATACOPY RETURNDATASIZE PUSH1 0x0 REVERT JUMPDEST POP POP POP POP POP PUSH1 0x40 MLOAD RETURNDATASIZE PUSH1 0x1F NOT PUSH1 0x1F DUP3 ADD AND DUP3 ADD DUP1 PUSH1 0x40 MSTORE POP DUP2 ADD SWAP1 PUSH2 0x3B0 SWAP2 SWAP1 PUSH2 0xBB1 JUMP JUMPDEST POP SWAP2 POP SWAP2 POP DUP2 DUP4 GT ISZERO PUSH2 0x404 JUMPI PUSH2 0x3E9 DUP12 PUSH32 0x0 PUSH1 0x0 PUSH2 0x430 JUMP JUMPDEST PUSH2 0x3FF DUP12 CALLER DUP5 DUP7 PUSH2 0x3FA SWAP2 SWAP1 PUSH2 0xC33 JUMP JUMPDEST PUSH2 0x566 JUMP JUMPDEST PUSH2 0x423 JUMP JUMPDEST DUP1 DUP5 GT ISZERO PUSH2 0x422 JUMPI PUSH2 0x421 CALLER DUP3 DUP7 PUSH2 0x41C SWAP2 SWAP1 PUSH2 0xC33 JUMP JUMPDEST PUSH2 0x69C JUMP JUMPDEST JUMPDEST JUMPDEST POP POP POP POP POP POP POP POP POP POP POP JUMP JUMPDEST PUSH1 0x0 DUP1 DUP5 PUSH20 0xFFFFFFFFFFFFFFFFFFFFFFFFFFFFFFFFFFFFFFFF AND PUSH4 0x95EA7B3 DUP6 DUP6 PUSH1 0x40 MLOAD PUSH1 0x24 ADD PUSH2 0x462 SWAP3 SWAP2 SWAP1 PUSH2 0xC67 JUMP JUMPDEST PUSH1 0x40 MLOAD PUSH1 0x20 DUP2 DUP4 SUB SUB DUP2 MSTORE SWAP1 PUSH1 0x40 MSTORE SWAP1 PUSH1 0xE0 SHL PUSH1 0x20 DUP3 ADD DUP1 MLOAD PUSH28 0xFFFFFFFFFFFFFFFFFFFFFFFFFFFFFFFFFFFFFFFFFFFFFFFFFFFFFFFF DUP4 DUP2 DUP4 AND OR DUP4 MSTORE POP POP POP POP PUSH1 0x40 MLOAD PUSH2 0x4B0 SWAP2 SWAP1 PUSH2 0xD0A JUMP JUMPDEST PUSH1 0x0 PUSH1 0x40 MLOAD DUP1 DUP4 SUB DUP2 PUSH1 0x0 DUP7 GAS CALL SWAP2 POP POP RETURNDATASIZE DUP1 PUSH1 0x0 DUP2 EQ PUSH2 0x4ED JUMPI PUSH1 0x40 MLOAD SWAP2 POP PUSH1 0x1F NOT PUSH1 0x3F RETURNDATASIZE ADD AND DUP3 ADD PUSH1 0x40 MSTORE RETURNDATASIZE DUP3 MSTORE RETURNDATASIZE PUSH1 0x0 PUSH1 0x20 DUP5 ADD RETURNDATACOPY PUSH2 0x4F2 JUMP JUMPDEST PUSH1 0x60 SWAP2 POP JUMPDEST POP SWAP2 POP SWAP2 POP DUP2 DUP1 ISZERO PUSH2 0x520 JUMPI POP PUSH1 0x0 DUP2 MLOAD EQ DUP1 PUSH2 0x51F JUMPI POP DUP1 DUP1 PUSH1 0x20 ADD SWAP1 MLOAD DUP2 ADD SWAP1 PUSH2 0x51E SWAP2 SWAP1 PUSH2 0x9DC JUMP JUMPDEST JUMPDEST JUMPDEST PUSH2 0x55F JUMPI PUSH1 0x40 MLOAD PUSH32 0x8C379A000000000000000000000000000000000000000000000000000000000 DUP2 MSTORE PUSH1 0x4 ADD PUSH2 0x556 SWAP1 PUSH2 0xD93 JUMP JUMPDEST PUSH1 0x40 MLOAD DUP1 SWAP2 SUB SWAP1 REVERT JUMPDEST POP POP POP POP POP JUMP JUMPDEST PUSH1 0x0 DUP1 DUP5 PUSH20 0xFFFFFFFFFFFFFFFFFFFFFFFFFFFFFFFFFFFFFFFF AND PUSH4 0xA9059CBB DUP6 DUP6 PUSH1 0x40 MLOAD PUSH1 0x24 ADD PUSH2 0x598 SWAP3 SWAP2 SWAP1 PUSH2 0xC67 JUMP JUMPDEST PUSH1 0x40 MLOAD PUSH1 0x20 DUP2 DUP4 SUB SUB DUP2 MSTORE SWAP1 PUSH1 0x40 MSTORE SWAP1 PUSH1 0xE0 SHL PUSH1 0x20 DUP3 ADD DUP1 MLOAD PUSH28 0xFFFFFFFFFFFFFFFFFFFFFFFFFFFFFFFFFFFFFFFFFFFFFFFFFFFFFFFF DUP4 DUP2 DUP4 AND OR DUP4 MSTORE POP POP POP POP PUSH1 0x40 MLOAD PUSH2 0x5E6 SWAP2 SWAP1 PUSH2 0xD0A JUMP JUMPDEST PUSH1 0x0 PUSH1 0x40 MLOAD DUP1 DUP4 SUB DUP2 PUSH1 0x0 DUP7 GAS CALL SWAP2 POP POP RETURNDATASIZE DUP1 PUSH1 0x0 DUP2 EQ PUSH2 0x623 JUMPI PUSH1 0x40 MLOAD SWAP2 POP PUSH1 0x1F NOT PUSH1 0x3F RETURNDATASIZE ADD AND DUP3 ADD PUSH1 0x40 MSTORE RETURNDATASIZE DUP3 MSTORE RETURNDATASIZE PUSH1 0x0 PUSH1 0x20 DUP5 ADD RETURNDATACOPY PUSH2 0x628 JUMP JUMPDEST PUSH1 0x60 SWAP2 POP JUMPDEST POP SWAP2 POP SWAP2 POP DUP2 DUP1 ISZERO PUSH2 0x656 JUMPI POP PUSH1 0x0 DUP2 MLOAD EQ DUP1 PUSH2 0x655 JUMPI POP DUP1 DUP1 PUSH1 0x20 ADD SWAP1 MLOAD DUP2 ADD SWAP1 PUSH2 0x654 SWAP2 SWAP1 PUSH2 0x9DC JUMP JUMPDEST JUMPDEST JUMPDEST PUSH2 0x695 JUMPI PUSH1 0x40 MLOAD PUSH32 0x8C379A000000000000000000000000000000000000000000000000000000000 DUP2 MSTORE PUSH1 0x4 ADD PUSH2 0x68C SWAP1 PUSH2 0xE25 JUMP JUMPDEST PUSH1 0x40 MLOAD DUP1 SWAP2 SUB SWAP1 REVERT JUMPDEST POP POP POP POP POP JUMP JUMPDEST PUSH1 0x0 DUP3 PUSH20 0xFFFFFFFFFFFFFFFFFFFFFFFFFFFFFFFFFFFFFFFF AND DUP3 PUSH1 0x0 PUSH8 0xFFFFFFFFFFFFFFFF DUP2 GT ISZERO PUSH2 0x6D1 JUMPI PUSH2 0x6D0 PUSH2 0xE45 JUMP JUMPDEST JUMPDEST PUSH1 0x40 MLOAD SWAP1 DUP1 DUP3 MSTORE DUP1 PUSH1 0x1F ADD PUSH1 0x1F NOT AND PUSH1 0x20 ADD DUP3 ADD PUSH1 0x40 MSTORE DUP1 ISZERO PUSH2 0x703 JUMPI DUP2 PUSH1 0x20 ADD PUSH1 0x1 DUP3 MUL DUP1 CALLDATASIZE DUP4 CALLDATACOPY DUP1 DUP3 ADD SWAP2 POP POP SWAP1 POP JUMPDEST POP PUSH1 0x40 MLOAD PUSH2 0x711 SWAP2 SWAP1 PUSH2 0xD0A JUMP JUMPDEST PUSH1 0x0 PUSH1 0x40 MLOAD DUP1 DUP4 SUB DUP2 DUP6 DUP8 GAS CALL SWAP3 POP POP POP RETURNDATASIZE DUP1 PUSH1 0x0 DUP2 EQ PUSH2 0x74E JUMPI PUSH1 0x40 MLOAD SWAP2 POP PUSH1 0x1F NOT PUSH1 0x3F RETURNDATASIZE ADD AND DUP3 ADD PUSH1 0x40 MSTORE RETURNDATASIZE DUP3 MSTORE RETURNDATASIZE PUSH1 0x0 PUSH1 0x20 DUP5 ADD RETURNDATACOPY PUSH2 0x753 JUMP JUMPDEST PUSH1 0x60 SWAP2 POP JUMPDEST POP POP SWAP1 POP DUP1 PUSH2 0x797 JUMPI PUSH1 0x40 MLOAD PUSH32 0x8C379A000000000000000000000000000000000000000000000000000000000 DUP2 MSTORE PUSH1 0x4 ADD PUSH2 0x78E SWAP1 PUSH2 0xEE6 JUMP JUMPDEST PUSH1 0x40 MLOAD DUP1 SWAP2 SUB SWAP1 REVERT JUMPDEST POP POP POP JUMP JUMPDEST PUSH1 0x0 DUP1 REVERT JUMPDEST PUSH1 0x0 PUSH20 0xFFFFFFFFFFFFFFFFFFFFFFFFFFFFFFFFFFFFFFFF DUP3 AND SWAP1 POP SWAP2 SWAP1 POP JUMP JUMPDEST PUSH1 0x0 PUSH2 0x7CC DUP3 PUSH2 0x7A1 JUMP JUMPDEST SWAP1 POP SWAP2 SWAP1 POP JUMP JUMPDEST PUSH2 0x7DC DUP2 PUSH2 0x7C1 JUMP JUMPDEST DUP2 EQ PUSH2 0x7E7 JUMPI PUSH1 0x0 DUP1 REVERT JUMPDEST POP JUMP JUMPDEST PUSH1 0x0 DUP2 CALLDATALOAD SWAP1 POP PUSH2 0x7F9 DUP2 PUSH2 0x7D3 JUMP JUMPDEST SWAP3 SWAP2 POP POP JUMP JUMPDEST PUSH1 0x0 DUP2 SWAP1 POP SWAP2 SWAP1 POP JUMP JUMPDEST PUSH2 0x812 DUP2 PUSH2 0x7FF JUMP JUMPDEST DUP2 EQ PUSH2 0x81D JUMPI PUSH1 0x0 DUP1 REVERT JUMPDEST POP JUMP JUMPDEST PUSH1 0x0 DUP2 CALLDATALOAD SWAP1 POP PUSH2 0x82F DUP2 PUSH2 0x809 JUMP JUMPDEST SWAP3 SWAP2 POP POP JUMP JUMPDEST PUSH1 0x0 DUP1 PUSH1 0x0 DUP1 PUSH1 0x0 PUSH1 0xA0 DUP7 DUP9 SUB SLT ISZERO PUSH2 0x851 JUMPI PUSH2 0x850 PUSH2 0x79C JUMP JUMPDEST JUMPDEST PUSH1 0x0 PUSH2 0x85F DUP9 DUP3 DUP10 ADD PUSH2 0x7EA JUMP JUMPDEST SWAP6 POP POP PUSH1 0x20 PUSH2 0x870 DUP9 DUP3 DUP10 ADD PUSH2 0x820 JUMP JUMPDEST SWAP5 POP POP PUSH1 0x40 PUSH2 0x881 DUP9 DUP3 DUP10 ADD PUSH2 0x820 JUMP JUMPDEST SWAP4 POP POP PUSH1 0x60 PUSH2 0x892 DUP9 DUP3 DUP10 ADD PUSH2 0x7EA JUMP JUMPDEST SWAP3 POP POP PUSH1 0x80 PUSH2 0x8A3 DUP9 DUP3 DUP10 ADD PUSH2 0x820 JUMP JUMPDEST SWAP2 POP POP SWAP3 SWAP6 POP SWAP3 SWAP6 SWAP1 SWAP4 POP JUMP JUMPDEST PUSH2 0x8B9 DUP2 PUSH2 0x7C1 JUMP JUMPDEST DUP3 MSTORE POP POP JUMP JUMPDEST PUSH1 0x0 PUSH1 0x20 DUP3 ADD SWAP1 POP PUSH2 0x8D4 PUSH1 0x0 DUP4 ADD DUP5 PUSH2 0x8B0 JUMP JUMPDEST SWAP3 SWAP2 POP POP JUMP JUMPDEST PUSH1 0x0 DUP2 MLOAD SWAP1 POP PUSH2 0x8E9 DUP2 PUSH2 0x7D3 JUMP JUMPDEST SWAP3 SWAP2 POP POP JUMP JUMPDEST PUSH1 0x0 PUSH1 0x20 DUP3 DUP5 SUB SLT ISZERO PUSH2 0x905 JUMPI PUSH2 0x904 PUSH2 0x79C JUMP JUMPDEST JUMPDEST PUSH1 0x0 PUSH2 0x913 DUP5 DUP3 DUP6 ADD PUSH2 0x8DA JUMP JUMPDEST SWAP2 POP POP SWAP3 SWAP2 POP POP JUMP JUMPDEST PUSH1 0x0 DUP2 MLOAD SWAP1 POP PUSH2 0x92B DUP2 PUSH2 0x809 JUMP JUMPDEST SWAP3 SWAP2 POP POP JUMP JUMPDEST PUSH1 0x0 PUSH1 0x20 DUP3 DUP5 SUB SLT ISZERO PUSH2 0x947 JUMPI PUSH2 0x946 PUSH2 0x79C JUMP JUMPDEST JUMPDEST PUSH1 0x0 PUSH2 0x955 DUP5 DUP3 DUP6 ADD PUSH2 0x91C JUMP JUMPDEST SWAP2 POP POP SWAP3 SWAP2 POP POP JUMP JUMPDEST PUSH2 0x967 DUP2 PUSH2 0x7FF JUMP JUMPDEST DUP3 MSTORE POP POP JUMP JUMPDEST PUSH1 0x0 PUSH1 0x60 DUP3 ADD SWAP1 POP PUSH2 0x982 PUSH1 0x0 DUP4 ADD DUP7 PUSH2 0x8B0 JUMP JUMPDEST PUSH2 0x98F PUSH1 0x20 DUP4 ADD DUP6 PUSH2 0x8B0 JUMP JUMPDEST PUSH2 0x99C PUSH1 0x40 DUP4 ADD DUP5 PUSH2 0x95E JUMP JUMPDEST SWAP5 SWAP4 POP POP POP POP JUMP JUMPDEST PUSH1 0x0 DUP2 ISZERO ISZERO SWAP1 POP SWAP2 SWAP1 POP JUMP JUMPDEST PUSH2 0x9B9 DUP2 PUSH2 0x9A4 JUMP JUMPDEST DUP2 EQ PUSH2 0x9C4 JUMPI PUSH1 0x0 DUP1 REVERT JUMPDEST POP JUMP JUMPDEST PUSH1 0x0 DUP2 MLOAD SWAP1 POP PUSH2 0x9D6 DUP2 PUSH2 0x9B0 JUMP JUMPDEST SWAP3 SWAP2 POP POP JUMP JUMPDEST PUSH1 0x0 PUSH1 0x20 DUP3 DUP5 SUB SLT ISZERO PUSH2 0x9F2 JUMPI PUSH2 0x9F1 PUSH2 0x79C JUMP JUMPDEST JUMPDEST PUSH1 0x0 PUSH2 0xA00 DUP5 DUP3 DUP6 ADD PUSH2 0x9C7 JUMP JUMPDEST SWAP2 POP POP SWAP3 SWAP2 POP POP JUMP JUMPDEST PUSH1 0x0 DUP3 DUP3 MSTORE PUSH1 0x20 DUP3 ADD SWAP1 POP SWAP3 SWAP2 POP POP JUMP JUMPDEST PUSH32 0x5452414E534645525F46524F4D5F4641494C4544000000000000000000000000 PUSH1 0x0 DUP3 ADD MSTORE POP JUMP JUMPDEST PUSH1 0x0 PUSH2 0xA50 PUSH1 0x14 DUP4 PUSH2 0xA09 JUMP JUMPDEST SWAP2 POP PUSH2 0xA5B DUP3 PUSH2 0xA1A JUMP JUMPDEST PUSH1 0x20 DUP3 ADD SWAP1 POP SWAP2 SWAP1 POP JUMP JUMPDEST PUSH1 0x0 PUSH1 0x20 DUP3 ADD SWAP1 POP DUP2 DUP2 SUB PUSH1 0x0 DUP4 ADD MSTORE PUSH2 0xA7F DUP2 PUSH2 0xA43 JUMP JUMPDEST SWAP1 POP SWAP2 SWAP1 POP JUMP JUMPDEST PUSH1 0x0 DUP2 SWAP1 POP SWAP2 SWAP1 POP JUMP JUMPDEST PUSH1 0x0 DUP2 SWAP1 POP SWAP2 SWAP1 POP JUMP JUMPDEST PUSH1 0x0 PUSH2 0xAB5 PUSH2 0xAB0 PUSH2 0xAAB DUP5 PUSH2 0xA86 JUMP JUMPDEST PUSH2 0xA90 JUMP JUMPDEST PUSH2 0x7FF JUMP JUMPDEST SWAP1 POP SWAP2 SWAP1 POP JUMP JUMPDEST PUSH2 0xAC5 DUP2 PUSH2 0xA9A JUMP JUMPDEST DUP3 MSTORE POP POP JUMP JUMPDEST PUSH1 0x0 PUSH1 0x80 DUP3 ADD SWAP1 POP PUSH2 0xAE0 PUSH1 0x0 DUP4 ADD DUP8 PUSH2 0x95E JUMP JUMPDEST PUSH2 0xAED PUSH1 0x20 DUP4 ADD DUP7 PUSH2 0xABC JUMP JUMPDEST PUSH2 0xAFA PUSH1 0x40 DUP4 ADD DUP6 PUSH2 0xABC JUMP JUMPDEST PUSH2 0xB07 PUSH1 0x60 DUP4 ADD DUP5 PUSH2 0x95E JUMP JUMPDEST SWAP6 SWAP5 POP POP POP POP POP JUMP JUMPDEST PUSH1 0x0 DUP1 PUSH1 0x40 DUP4 DUP6 SUB SLT ISZERO PUSH2 0xB27 JUMPI PUSH2 0xB26 PUSH2 0x79C JUMP JUMPDEST JUMPDEST PUSH1 0x0 PUSH2 0xB35 DUP6 DUP3 DUP7 ADD PUSH2 0x91C JUMP JUMPDEST SWAP3 POP POP PUSH1 0x20 PUSH2 0xB46 DUP6 DUP3 DUP7 ADD PUSH2 0x91C JUMP JUMPDEST SWAP2 POP POP SWAP3 POP SWAP3 SWAP1 POP JUMP JUMPDEST PUSH1 0x0 PUSH1 0xC0 DUP3 ADD SWAP1 POP PUSH2 0xB65 PUSH1 0x0 DUP4 ADD DUP10 PUSH2 0x8B0 JUMP JUMPDEST PUSH2 0xB72 PUSH1 0x20 DUP4 ADD DUP9 PUSH2 0x95E JUMP JUMPDEST PUSH2 0xB7F PUSH1 0x40 DUP4 ADD DUP8 PUSH2 0x95E JUMP JUMPDEST PUSH2 0xB8C PUSH1 0x60 DUP4 ADD DUP7 PUSH2 0x95E JUMP JUMPDEST PUSH2 0xB99 PUSH1 0x80 DUP4 ADD DUP6 PUSH2 0x8B0 JUMP JUMPDEST PUSH2 0xBA6 PUSH1 0xA0 DUP4 ADD DUP5 PUSH2 0x95E JUMP JUMPDEST SWAP8 SWAP7 POP POP POP POP POP POP POP JUMP JUMPDEST PUSH1 0x0 DUP1 PUSH1 0x0 PUSH1 0x60 DUP5 DUP7 SUB SLT ISZERO PUSH2 0xBCA JUMPI PUSH2 0xBC9 PUSH2 0x79C JUMP JUMPDEST JUMPDEST PUSH1 0x0 PUSH2 0xBD8 DUP7 DUP3 DUP8 ADD PUSH2 0x91C JUMP JUMPDEST SWAP4 POP POP PUSH1 0x20 PUSH2 0xBE9 DUP7 DUP3 DUP8 ADD PUSH2 0x91C JUMP JUMPDEST SWAP3 POP POP PUSH1 0x40 PUSH2 0xBFA DUP7 DUP3 DUP8 ADD PUSH2 0x91C JUMP JUMPDEST SWAP2 POP POP SWAP3 POP SWAP3 POP SWAP3 JUMP JUMPDEST PUSH32 0x4E487B7100000000000000000000000000000000000000000000000000000000 PUSH1 0x0 MSTORE PUSH1 0x11 PUSH1 0x4 MSTORE PUSH1 0x24 PUSH1 0x0 REVERT JUMPDEST PUSH1 0x0 PUSH2 0xC3E DUP3 PUSH2 0x7FF JUMP JUMPDEST SWAP2 POP PUSH2 0xC49 DUP4 PUSH2 0x7FF JUMP JUMPDEST SWAP3 POP DUP3 DUP3 LT ISZERO PUSH2 0xC5C JUMPI PUSH2 0xC5B PUSH2 0xC04 JUMP JUMPDEST JUMPDEST DUP3 DUP3 SUB SWAP1 POP SWAP3 SWAP2 POP POP JUMP JUMPDEST PUSH1 0x0 PUSH1 0x40 DUP3 ADD SWAP1 POP PUSH2 0xC7C PUSH1 0x0 DUP4 ADD DUP6 PUSH2 0x8B0 JUMP JUMPDEST PUSH2 0xC89 PUSH1 0x20 DUP4 ADD DUP5 PUSH2 0x95E JUMP JUMPDEST SWAP4 SWAP3 POP POP POP JUMP JUMPDEST PUSH1 0x0 DUP2 MLOAD SWAP1 POP SWAP2 SWAP1 POP JUMP JUMPDEST PUSH1 0x0 DUP2 SWAP1 POP SWAP3 SWAP2 POP POP JUMP JUMPDEST PUSH1 0x0 JUMPDEST DUP4 DUP2 LT ISZERO PUSH2 0xCC4 JUMPI DUP1 DUP3 ADD MLOAD DUP2 DUP5 ADD MSTORE PUSH1 0x20 DUP2 ADD SWAP1 POP PUSH2 0xCA9 JUMP JUMPDEST DUP4 DUP2 GT ISZERO PUSH2 0xCD3 JUMPI PUSH1 0x0 DUP5 DUP5 ADD MSTORE JUMPDEST POP POP POP POP JUMP JUMPDEST PUSH1 0x0 PUSH2 0xCE4 DUP3 PUSH2 0xC90 JUMP JUMPDEST PUSH2 0xCEE DUP2 DUP6 PUSH2 0xC9B JUMP JUMPDEST SWAP4 POP PUSH2 0xCFE DUP2 DUP6 PUSH1 0x20 DUP7 ADD PUSH2 0xCA6 JUMP JUMPDEST DUP1 DUP5 ADD SWAP2 POP POP SWAP3 SWAP2 POP POP JUMP JUMPDEST PUSH1 0x0 PUSH2 0xD16 DUP3 DUP5 PUSH2 0xCD9 JUMP JUMPDEST SWAP2 POP DUP2 SWAP1 POP SWAP3 SWAP2 POP POP JUMP JUMPDEST PUSH32 0x5472616E7366657248656C7065723A3A73616665417070726F76653A20617070 PUSH1 0x0 DUP3 ADD MSTORE PUSH32 0x726F7665206661696C6564000000000000000000000000000000000000000000 PUSH1 0x20 DUP3 ADD MSTORE POP JUMP JUMPDEST PUSH1 0x0 PUSH2 0xD7D PUSH1 0x2B DUP4 PUSH2 0xA09 JUMP JUMPDEST SWAP2 POP PUSH2 0xD88 DUP3 PUSH2 0xD21 JUMP JUMPDEST PUSH1 0x40 DUP3 ADD SWAP1 POP SWAP2 SWAP1 POP JUMP JUMPDEST PUSH1 0x0 PUSH1 0x20 DUP3 ADD SWAP1 POP DUP2 DUP2 SUB PUSH1 0x0 DUP4 ADD MSTORE PUSH2 0xDAC DUP2 PUSH2 0xD70 JUMP JUMPDEST SWAP1 POP SWAP2 SWAP1 POP JUMP JUMPDEST PUSH32 0x5472616E7366657248656C7065723A3A736166655472616E736665723A207472 PUSH1 0x0 DUP3 ADD MSTORE PUSH32 0x616E73666572206661696C656400000000000000000000000000000000000000 PUSH1 0x20 DUP3 ADD MSTORE POP JUMP JUMPDEST PUSH1 0x0 PUSH2 0xE0F PUSH1 0x2D DUP4 PUSH2 0xA09 JUMP JUMPDEST SWAP2 POP PUSH2 0xE1A DUP3 PUSH2 0xDB3 JUMP JUMPDEST PUSH1 0x40 DUP3 ADD SWAP1 POP SWAP2 SWAP1 POP JUMP JUMPDEST PUSH1 0x0 PUSH1 0x20 DUP3 ADD SWAP1 POP DUP2 DUP2 SUB PUSH1 0x0 DUP4 ADD MSTORE PUSH2 0xE3E DUP2 PUSH2 0xE02 JUMP JUMPDEST SWAP1 POP SWAP2 SWAP1 POP JUMP JUMPDEST PUSH32 0x4E487B7100000000000000000000000000000000000000000000000000000000 PUSH1 0x0 MSTORE PUSH1 0x41 PUSH1 0x4 MSTORE PUSH1 0x24 PUSH1 0x0 REVERT JUMPDEST PUSH32 0x5472616E7366657248656C7065723A3A736166655472616E736665724554483A PUSH1 0x0 DUP3 ADD MSTORE PUSH32 0x20455448207472616E73666572206661696C6564000000000000000000000000 PUSH1 0x20 DUP3 ADD MSTORE POP JUMP JUMPDEST PUSH1 0x0 PUSH2 0xED0 PUSH1 0x34 DUP4 PUSH2 0xA09 JUMP JUMPDEST SWAP2 POP PUSH2 0xEDB DUP3 PUSH2 0xE74 JUMP JUMPDEST PUSH1 0x40 DUP3 ADD SWAP1 POP SWAP2 SWAP1 POP JUMP JUMPDEST PUSH1 0x0 PUSH1 0x20 DUP3 ADD SWAP1 POP DUP2 DUP2 SUB PUSH1 0x0 DUP4 ADD MSTORE PUSH2 0xEFF DUP2 PUSH2 0xEC3 JUMP JUMPDEST SWAP1 POP SWAP2 SWAP1 POP JUMP INVALID LOG2 PUSH5 0x6970667358 0x22 SLT KECCAK256 SWAP4 0x2D 0xDD DUP5 0xE9 0xE6 0xFB ADD 0xED MOD 0xC8 JUMPI SIGNEXTEND 0xC3 0xD1 PUSH11 0x4443CF6265AEBC1D65CCA0 0xA9 MSIZE 0xE6 0xCB CHAINID PUSH5 0x736F6C6343 STOP ADDMOD 0xF STOP CALLER "
				},
				"gasEstimates": {
					"creation": {
						"codeDepositCost": "780000",
						"executionCost": "infinite",
						"totalCost": "infinite"
					},
					"external": {
						"migrate(address,uint256,uint256,address,uint256)": "infinite"
					}
				},
				"methodIdentifiers": {
					"migrate(address,uint256,uint256,address,uint256)": "b7df1d25"
				}
			},
			"storageLayout": {
				"storage": [],
				"types": null
			},
			"userdoc": {
				"kind": "user",
				"methods": {},
				"version": 1
			}
		}
	}
}